:020000022000DC
:1030000000000420B5320200DD320200DF3202008F
:10301000E1320200E3320200E5320200000000006B
:10302000000000000000000000000000E732020085
:10303000E932020000000000EB320200ED32020033
:103040009D070300EF320200AD070300EF320200DC
:10305000EF320200EF320200EF320200EF320200E4
:10306000EF320200EF320200CDF80200EF32020030
:10307000EF320200EF320200EF320200EF320200C4
:10308000EF320200E9590200EF320200EF32020093
:10309000EF320200EF32020041370300EF3202004C
:1030A000EF320200EF320200EF320200EF32020094
:1030B000EF320200EF3202000000000000000000CA
:1030C000EF320200EF320200EF320200EF32020074
:1030D000EF320200EF320200EF320200252403003B
:1030E000EF32020085090300EF3202000000000009
:1030F00000000000EF32020000000000EF3202008A
:1031000000000000000000000000000000000000BF
:1031100000000000000000000000000000000000AF
:10312000000000000000000000000000000000009F
:10313000000000000000000000000000000000008F
:10314000000000000000000000000000000000007F
:10315000000000000000000000000000000000006F
:10316000000000000000000000000000000000005F
:10317000000000000000000000000000000000004F
:10318000000000000000000000000000000000003F
:10319000000000000000000000000000000000002F
:1031A000000000000000000000000000000000001F
:1031B000000000000000000000000000000000000F
:1031C00000000000000000000000000000000000FF
:1031D00000000000000000000000000000000000EF
:1031E00000000000000000000000000000000000DF
:1031F00000000000000000000000000000000000CF
:1032000010B5054C237833B9044B13B10448AFF320
:1032100000800123237010BD5494012000000000A1
:10322000AC48030008B5034B1BB103490348AFF397
:10323000008008BD0000000058940120AC48030045
:10324000154B002B08BF134B9D46A3F5803A002178
:103250008B460F461348144A121A10F025FB0F4BE9
:10326000002B00D098470E4B002B00D09847002031
:10327000002104000D000D48002802D00C48AFF3D7
:10328000008010F0D3FA200029000FF0F7FA10F0B8
:10329000B9FA00BF00000800000004200000000090
:1032A0000000000054940120AC3C0220000000000B
:1032B000000000000649074A074B9B1A03DD043B48
:1032C000C858D050FBDC02F0D3FDFFF7B9FF000077
:1032D0003C4903008093012054940120FEE7FEE75F
:1032E000FEE7FEE7FEE7FEE7FEE7FEE7FEE7FEE7B6
:1032F0001FB50021039001AA44F20100CDE901119C
:103300000BF0CCFA05B05DF804FB000012F00303EB
:1033100010B513D10A4C22604C1CE400A4B2224424
:10332000084C2260084A1370084A1370084A10803B
:10333000084A1180084A1846138010BD0720FCE790
:1033400078940120749401207294012080940120CB
:103350007C9401207E94012070940120074B084A40
:103360001B7812881846074B1B78984284BF511C63
:103370005B181B1A9BB2D31A98B270478094012035
:103380007E940120729401202DE9F347344D2B885F
:103390008B4206460C4617465DD302A84FF0000844
:1033A00000F8018D02F002FADFF8C8E02D499EF81E
:1033B00000C00B78DAB22C4B1888824238BF013239
:1033C0005FFA8CFC38BF5FFA82F8C4453DD091F8B3
:1033D00000800A78D2B2904286BF0132D2B2002277
:1033E0000A709EF800301A460B789A4284BF01306A
:1033F0001B189B1A1D4A11889BB2994200D2138058
:103400009DF8070002F0F6F94FF6FF73984524D0B7
:10341000DFF864A0DAF800304FEAC80903EB0902CC
:1034200043F83870A6B19CB1114B28881B6822461E
:1034300008FB0030314610F02CFADAF800304B442B
:1034400000209C8002B0BDE8F0874FF6FF78D7E7F8
:1034500000209080F6E70920F4E70420F2E700BF9F
:103460007C940120729401207E94012070940120AC
:1034700074940120809401207894012007B502A85B
:10348000002300F8013D02F091F9064A9DF807007B
:103490001368591C1CBF0133136002F0ABF903B071
:1034A0005DF804FB8494012007B502A8002300F80E
:1034B000013D02F07BF9064A13680BB1013B136032
:1034C0009DF8070002F096F903B05DF804FB00BF19
:1034D00084940120F8B5134E134C356825B9134B6D
:1034E00022781B789A4200D1F8BD22781048114BFF
:1034F00007881B681048D2B211B203EBC10C0068F8
:1035000053F83130BCF8041002FB070098470B4B0E
:1035100022781B88D2B2934286BF531CDBB22B4663
:103520002370DAE7849401208094012072940120B2
:103530007C94012078940120749401207E940120D1
:1035400040684B6898428CBF002001207047000003
:1035500037B505460C460A4801A902F062FA60B187
:103560000570446001A9064802F085FA18B10548C3
:1035700002F02AFA002003B030BD0420FBE700BFB0
:10358000E89401208093012038B5114B1B78044644
:1035900013B90025284638BD0028FAD0037D002B3A
:1035A000F7D0836803B90375D4E903309847A3685B
:1035B000002BEED0227D02F0FF05002AE9D06268E0
:1035C000044813446360214602F019FCE2E700BF9F
:1035D0008C940120D04103002DE9F743054602F009
:1035E000E2F9002848D10021284602F0E1F938B17B
:1035F000574C236823B12068FFF7C6FF00232360E0
:1036000001A95448DFF84881534EDFF8549102F085
:1036100042FA0446002C4ED14F4F4D4CDFF8448106
:10362000384602F002FC002800F0878042682368D8
:103630005B68216851B12168D9B19A4219D22368D7
:103640001B7D1BB12168384602F0D9FB384602F0D9
:10365000E6FB4FF49603064642680021404602F01E
:103660004FF9002862D1236813B9284602F040F9C7
:10367000266003B0BDE8F083354A13682BB11368A8
:103680005B68126823F07F435360334802F0CDFB40
:1036900004460028A7D06368B3F1807F06D2204695
:1036A000FFF772FF204602F0C3FBF1E7636823F0E7
:1036B0007F436360F6E72378012B2AD009D3022BDE
:1036C0001DD10024304602F0AAFB00283CD004752E
:1036D000F8E763681A7D92B901221A756368284673
:1036E0005F6802F06CF9381A484581BF6268536818
:1036F00023F07F4353606168304602F080FB01A9EC
:10370000144802F0F3F901A9124802F0C4F9044682
:1037100080E7D8F800306168994208BF002330463E
:1037200008BFC8F8003002F085FBE8E70D287FF4F9
:1037300077AF3046FFF728FF72E72368002B98D158
:10374000284602F0D9F894E7044B01221A70D6E714
:10375000F8940120E8940120D04103008C940120CA
:10376000FFFFB4008093012013B50E4B0E4918687B
:103770000190082358220D4802F040F9044668B928
:103780000B4A0C4801A902F073F8044630B9012134
:10379000084802F0FFF8084B01221A70204602B0D8
:1037A00010BD00BFCC41030090940120E89401209B
:1037B000D9350200809301208C9401203AB103682E
:1037C000DA604A1E5142514199600020704707203B
:1037D00070470000B1F5350F38B504460D4610D2DC
:1037E000037D83B90261094802F0E9F8A36828441F
:1037F000606003B1A56021460020BDE83840FFF7B6
:10380000A7BE072038BD0020FCE700BF8093012041
:103810000023014603750120FFF79ABE43681B6829
:1038200018470000024B5B6803B11847704700BFA0
:1038300000950120020600F00F034CBF0248034828
:10384000DB001844704700BF0C95012054950120FF
:1038500008B5FFF7EFFF016009B9416008BD4B688B
:103860001B684360FAE70000024B01465A6818687B
:10387000104700BF5495012038B5831EDBB2062BDC
:1038800098BF194A194C98BFD25C2378A3F1020360
:10389000DBB288BF0022062B9ABF1349CB5C002302
:1038A0009342054603D0A2B111480CF0D5FC022D7D
:1038B00001D0082D10D101232278022A01D0082A34
:1038C0000CD101229A4202D053B10EF0F7FA2570C2
:1038D00038BD0CF0FBFCEAE70023EDE70022F1E73E
:1038E0000EF0E2FAF3E700BFDC410300CC960120C2
:1038F0008893012073B50378052B04460CD12F4A19
:10390000D2F88434D2F8802412F0FF0F04D12C4A6C
:10391000DBB2052B08BF144623782BBB294B1D684F
:10392000DDB902A800F8045D274D01F03FFF2A68C9
:1039300012B9264B62881A800121234802F0FBF855
:103940009DF8040001F056FF214B1B6813B10121C3
:10395000204698472B6802B070BD2B6860889B6832
:1039600098472B685D68DBE701A91A4802F059F80F
:1039700005460028EFD02368036002A8002600F85F
:10398000056D01F013FF114B0F481B8802680133CE
:103990009B1AEB80314602F0B9F8A8809DF803002D
:1039A00001F028FF01A90B4802F065F8084B1B68DD
:1039B0000146002BCFD020469847CCE7007002404C
:1039C000F4410300C0960120C89601209C95012077
:1039D00000950120A8960120FFF78CBF012806D092
:1039E00002D3022805D070470348FFF783BF03487E
:1039F000FBE70348F9E700BFE8410300EC4103009F
:103A0000F04103000148FFF775BF00BFF841030014
:103A10002DE9F04F87B006AC002644F8106D05463E
:103A20008946924698466B6800225F6829460123C2
:103A30002046B84740B98DF8060004900446074672
:103A4000BE4203D805202AE00136ECE76B680DF191
:103A50000602D3F804B02946012304A8D8476B68AE
:103A60000DF10702D3F804B02946012304A8D84772
:103A70009DF807304B459DF8063015D1544511D1BE
:103A8000109A136088F8003088F801906A68023B49
:103A90005468294608F1020204A8A047002007B094
:103AA000BDE8F08F0134E4B26A68023BD2F804B09A
:103AB0002946002204A8D8479DF806301F44BFE7D6
:103AC0002DE9F743082305464FF484722F49304807
:103AD00001F094FF002856D12E480EF005FA044656
:103AE000002835D12C4B18702C4B18602C4B0146FC
:103AF000186048222B480FF0D7FE482221462A485A
:103B00000FF0D2FE294B3DBBC3E900551D720020CA
:103B10000CF054FC18B1852801D0FFF7E9FB244EC6
:103B200096F80890002506F10908ECB2A14504D9E1
:103B300004EB440414EB080423D102A90B2301F87D
:103B4000043D1B48FFF76AFE044608B10EF086F8F4
:103B5000204603B0BDE8F08395E8070083E807003E
:103B6000D5E73146E05CFFF773FE6378FAB2934223
:103B700005D9A3781344DC4207F10107F1D10135DF
:103B8000D3E70027F1E70324E2E700BF9E95012079
:103B9000A8960120D9390200CC960120B8960120C0
:103BA000BC9601200C950120549501200095012020
:103BB0001442030010B50EF035F908B9082010BD05
:103BC0000EF038F904460028F8D104480CF017FC30
:103BD0000028F4D0FFF78CFB2046F0E7E441030017
:103BE0000EF046B80EF01EBD4FF08043D3F83824D7
:103BF000920702D50348FFF77DBED3F83824D107DA
:103C0000F4D47047F941030007B502A8822300F8F5
:103C1000043DFFF76FFE03B05DF804FB2DE9F341AF
:103C2000037A00F109040325064615FB03452746E0
:103C3000AC4231D01CB394F80180002106E0E05C76
:103C4000FFF7F8FD03680131002B36D1CBB2984560
:103C500003D9A3780B44DC42F1D10334E8E73146C1
:103C6000E85CFFF7F5FD6A785FFA88F39A4205D9B8
:103C7000AA781344DD4208F10108F0D10134337A07
:103C8000E5B2AB4203D905EB45057D1901D10C4BDB
:103C900005E04FF00008E6E70024F0E713681A6833
:103CA000002AFBD102A91E600B2301F8043D304617
:103CB000FFF7B4FD02B0BDE8F0811120FAE700BFC4
:103CC000B8960120024B1878003018BF01207047C9
:103CD000C496012000F00F03072B10B5044604D84A
:103CE0000EF02CFA20460EF065FD2046BDE810408F
:103CF0000EF010BD0EF0DCBC014B1868704700BF21
:103D0000B896012070B50A4B1B687BB11E7A002261
:103D1000D5B2B54201D31B68F6E7013202EB42048B
:103D20001C44A4798442F3D101B10D70184670BDD2
:103D3000B89601201146FFF771BD08B500F00F03DA
:103D4000082B07D8FFF776FD006818B1BDE80840DA
:103D5000FFF764BD102008BD38B5054B05461C684B
:103D600004B938BD29462046FFF758FD2368F6E719
:103D7000B896012038B5074B05461C680CB90620DB
:103D800038BD29462046FFF749FD0628F8D12368AB
:103D9000F3E700BFB896012038B504460D460EF093
:103DA000E4F848B1054B1B78022B05D12946204683
:103DB000BDE838400EF0DCB8082038BDCC960120B4
:103DC00038B504460D460EF0D0F848B1054B1B78C7
:103DD000022B05D129462046BDE838400EF03EB9F9
:103DE000082038BDCC960120F8B543689B6805468D
:103DF0000C46164613B92EB1072002E09847062854
:103E0000F9D0F8BD2B7AA34213D9093504EB440449
:103E10002C446778F3B29F4201D80020F1E7627822
:103E20009A4208D9A219A378D05CFFF753FF013654
:103E3000F0E77378FFDE00231B78FBE770B543687B
:103E4000DB6805460C4603B198472B7AA34213D989
:103E5000093504EB44042C4400256678EBB29E42FD
:103E600000D870BD62789A4209D96219A378D05CF3
:103E70000EF01EFC0135F1E700235B78FFDE002326
:103E80001B78FBE743681B6903B118471846704766
:103E900070B5084B1C6804B970BD267A0025E9B2DC
:103EA000B14201D32368F5E700222046FFF79CFFCB
:103EB0000135F4E7B896012070B5084B1C6804B9C9
:103EC00070BD267A0025E9B2B14201D32368F5E737
:103ED0002046FFF7B3FF0135F5E700BFB896012094
:103EE00038B50478092C054620D023D8032C00F0DF
:103EF000BC8012D8012C00F0A68040F28D800320F7
:103F0000FFF7BAFC0220FFF78DFC2846FFF724FFDD
:103F10002846BDE83840FFF7A7BC052CF8D0C0F014
:103F2000B380062C00F0BF80082C13D12046FFF789
:103F300079FC95E0812C0ED005D80F2CF6D0802C82
:103F400044D00A2CF1E7832C4CD021D3842C53D0BD
:103F5000852CDDD038BD5E48FFF786FC5C48FFF756
:103F6000FBFE0D20FFF75EFCFFF7A6FF00F09BFFB6
:103F7000584B1B6853B9584B187A00F001000DF0EC
:103F800027FF0120BDE83840FFF776BC0120F4E7A9
:103F9000FFF792FF0EF028FB0020FFF76DFC4F4863
:103FA000FFF7DAFE4D48FFF75FFC0E20FFF73AFC03
:103FB0004B4B1B78023BDBB2062BCBD8494AD35C78
:103FC000002BC7D0BDE838400CF080B9444B1B78BB
:103FD000062B05D0072B01D0052BBBD10220D1E742
:103FE0000820CFE73E4B1B78032BB3D10EF034FBF8
:103FF0000028AFD00420C5E7394B1B78032B05D12F
:104000000EF02AFB10B10420FFF736FC0DF01CFF68
:1040100000289FD00620B5E7314B1B78032B01D039
:10402000082B02D13048FFF75BFF0020FFF7FAFBB7
:10403000284B1C68002C8DD020462946FFF7EEFB4C
:1040400023685C68F6E7FFF737FF00F023FF0220E4
:10405000FFF712FC2046FFF7E5FB2846FFF704FCBC
:104060002846BDE83840FFF777BE1D4B1B78082B6C
:1040700006D10220FFF700FC0DF02AFF0320EAE73B
:104080000520FFF7F9FBF9E70320FFF7CBFB174803
:10409000FFF7EAFB1548FFF75FFE114B1B78062B75
:1040A0009CD107206EE78078FFF7C4FB2946436860
:1040B0000068984700283FF44DAFA87800F00F0340
:1040C000013B062B3FF646AFBDE838400EF010B876
:1040D000FA410300BC96012000950120FB4103003A
:1040E000CC960120DC410300FC410300FD410300AC
:1040F00073B5234D002301932B6823B9214922482E
:1041000001F0C9FC28602C68ECB1A68886B1E38870
:10411000B3F5006F24BF0023E380E388ADF80630D9
:104120005A1C013EE280A68001A8FFF7D9FE07E0F5
:104130002046FFF7D5FE1349134801F0D7FC2E6047
:10414000012002B070BD114B18680028F9D002A8F8
:1041500000F8054D01F02AFB0D4B0C481A88B2F50A
:10416000006F28BF1C801A88ADF80620511C1980EA
:10417000012101F0EBFC9DF8030001F03BFBD3E7CC
:10418000D0960120FC940120A8960120C896012019
:104190009C950120C36903B118477047036800224A
:1041A0001A845A62DA62C3E91E22C3E9202203F1AB
:1041B00034025A6770470000F0B5BB4D0C7A2C7082
:1041C0000468B4F5517F00F0CA8200F2DA8040F250
:1041D0002636B44200F03E826DD840F21636B44224
:1041E00000F0FB8126D840F21336B44200F0DA81A9
:1041F000B4F5457F0BD2002C00F0C28140F212369C
:10420000B44200F0C581002303601846BFE100F00E
:10421000D78140F21536B442F5D100240AB10679AF
:104220001655013402269C420671C0F0D78140F237
:104230001633AAE140F21936B44200F0E78114D8EF
:1042400040F21736B44200F0D481B4F5467FDAD19B
:1042500000240AB106791655013400269C420671E5
:10426000C0F0D58140F219338FE1B4F5487F00F0FA
:10427000E48140F22136B442C5D100240AB1067966
:1042800016558A4E0F7A3678DFF824C2B74204F109
:10429000010440F2548301F1090706EB460607EBDF
:1042A000060E9C42BE5DCCF800E00671C0F0D381E2
:1042B00040F2263369E140F23336B44200F009821D
:1042C000B4F54D7F38D2B4F54B7F00F0DE811CD8B9
:1042D00040F22736B44200F0C981B4F54A7F92D14A
:1042E00000240AB106791655714E0F7D366836786E
:1042F000B74204F1010440F0E18102269C420671BC
:10430000C0F0C4814FF44B733FE140F22D36B4420C
:1043100000F0C78140F22E36B4427FF474AF00241F
:104320000AB10679165501340026A342067100F23F
:10433000EA814FF44F7328E1B4F54F7F00F0E2813A
:1043400006D8B4F54D7F00F0D08140F23536E3E772
:1043500040F24236B44200F0EA8100F2F48140F2C9
:104360004136B4427FF44FAF00240AB106791655A6
:10437000013424269C420671C0F0DA8140F24233B7
:1043800003E140F25636B44200F053826AD8B4F5E5
:10439000537F00F01C8232D840F24936B44200F01C
:1043A000FD8115D840F24536B44200F0E481B4F501
:1043B000527F7FF428AF00240AB1067916550134E4
:1043C00024269C420671C0F0EA8140F24933DCE0C9
:1043D00040F24A36B44200F0ED8140F24B36B4422E
:1043E0007FF411AF00240AB10679165501348E7D91
:1043F00006719C42C0F0EC814FF45373C5E040F26B
:104400005136B44200F0FC8115D840F24F36B44228
:1044100000F0E981B4F5547F7FF4F5AE00240AB1D1
:1044200006791655013402269C420671C0F0E981D6
:1044300040F25133A9E040F25236B44200F0EC8130
:1044400040F25536B4427FF4DEAE00240AB106795C
:104450001655013424269C420671C0F0EB8140F2CF
:10446000563392E040F27236B44200F0278246D8CA
:1044700040F25936B44200F0F5811BD840F257366D
:10448000B44200F0E281B4F5567F7FF4BCAE002464
:104490000AB10679165501348E7D06719C42C0F032
:1044A000E28140F2593370E0D6960120D596012082
:1044B000D896012040F26D36B44200F0F28140F20D
:1044C0006E36B4427FF49FAE00240AB106791655C9
:1044D000AF4EB04F36683F7896F801C0BC4504F146
:1044E000010440F2318296F802C03E449C4216F824
:1044F0000C600671C0F0E38140F2723345E040F297
:104500008336B44200F0FA81B4F5617F14D240F2F0
:104510007736B44203D0B4F55F7F7FF474AE0024E5
:104520000AB10679165501344026A342067100F2FD
:10453000E68140F2833328E040F28936B44200F04D
:10454000F48140F28E36B44200F0EF81B4F5617F21
:104550007FF459AE00240AB1067916558C4E0F7DB2
:1045600036683678B74204F1010440F0D4810E6A0F
:104570009C4236780671C0F0D98140F2893304E05C
:104580000824047123B940F2123303600120F0BD06
:104590000AB1047914700B24012B04710ED840F277
:1045A0001333F2E700240AB10679165501340E7D63
:1045B00006719C4205D34FF44573E6E70124F2E708
:1045C00000240AB106791655013402269C42067170
:1045D000FFF424AE40F21533D7E700240AB1067980
:1045E0001655013402269C42067103D340F217335C
:1045F000CBE700240AB10679165501344E7E0671C8
:104600009C42FFF426AE4FF44673BEE700240AB185
:1046100006791655604E0027013437705E4E3778A4
:104620002E78B74202D340F29933AEE70926A3426F
:10463000067103D84FF44873A7E700240AB106793E
:104640001655013404269C420671FFF417AE40F261
:1046500021339AE700240AB1067916550134002661
:104660009C42067103D340F227338EE700240AB13F
:1046700006791655464E36680134767806719C42A6
:10468000FFF42FAE4FF44A737FE700240AB1067996
:104690001655013402269C42067103D340F22D3395
:1046A00073E700240AB10679165501344E7E06716F
:1046B0009C42FFF435AE40F22E3366E78F7DB74261
:1046C0007FF432AE0A269C42067103D340F23333A4
:1046D0005BE700240AB106791655013400269C4296
:1046E000067103D34FF44D734FE700240AB10679E6
:1046F0001655013400269C420671FFF411AE40F2BB
:10470000353342E700240AB106791655204E0F7D55
:1047100036683678B74204F1010440F0A8800526D7
:104720009C420671FFF421AE40F241332DE7002494
:104730000AB106791655013400269C42067103D34E
:1047400040F2433321E700240AB1067916550134BB
:1047500010269C42067103D34FF4517315E70024D1
:104760000AB106791655013401269C42067103D31D
:1047700040F2453309E700240AB1067916550134A1
:1047800005269C420671FFF417AE4FF45273FCE607
:10479000D8960120D7960120D596012000240AB191
:1047A00006791655013401269C42067103D340F266
:1047B0004A33EAE600240AB1067916550134032685
:1047C0009C420671FFF40FAE40F24B33DDE600244D
:1047D0000AB106791655013404269C42067103D3AA
:1047E00040F24F33D1E600240AB106791655013460
:1047F00024269C420671FFF412AE4FF45473C4E6B3
:1048000000240AB106791655013402269C4206712D
:1048100003D340F25233B8E600240AB106791655A4
:10482000013405269C420671FFF410AE40F2553368
:10483000ABE600240AB106791655013406269C42DF
:10484000067103D340F257339FE600240AB106797C
:10485000165501340E7D06719C42FFF419AE4FF4DB
:10486000567392E600240AB1067916550134374E84
:1048700036687778364E3770364E00273770354EAB
:104880003778334E3678B74204D3334F3E7801360B
:104890003E70C3E60726A342067103D840F26D338B
:1048A00073E600240AB106791655013405269C42A8
:1048B0000671FFF40AAE40F26E3366E600240AB1D8
:1048C00006791655214E0F7D36683678B74204F1C9
:1048D000010407D103269C420671FFF421AE40F289
:1048E000773352E68F7DB7427FF41EAE02269C429C
:1048F0000671FFF415AE4FF45F7346E600240AB16B
:1049000006791655013400269C420671FFF423AE49
:104910004FF4617339E68F7DB7420BD100269C427C
:10492000067103D340F28E332FE600240AB10679D4
:1049300016550134074F3E7801363E709FE700233D
:10494000CCF800301B78FFDE0023FBE7D89601206F
:10495000D4960120D7960120D59601204360CA69DC
:104960009A420ED38A6902608A69C8691A448A61C8
:104970000A6FC01A1A44C86100300A6718BF0120C4
:10498000704701F1280202608B670020704710B564
:10499000044658B90868037B202B09D100F10E01A9
:1049A000072218300EF075FF204610BD0320FCE7EB
:1049B0000620FAE7037A012B08D9427B012A00F18D
:1049C0000C0306D9827B13445878704700235B7828
:1049D000FFDE00231B78FBE72DE9F0430B7889B05D
:1049E00005460E460E2B17D8DFE803F00A080A0A20
:1049F000160CA4161608160A0A0A0A00FFF7CEFBC0
:104A0000002427E04A78D1094FEA521330D013F03E
:104A1000030303D0012B21D006241BE002F01F0268
:104A2000012AF9D1B478062CF6D105A8039300F039
:104A3000BFFC03ABF2783179009307460346284662
:104A4000FEF7E6FF052805D0039A3946701C00F0F2
:104A500045FA0446204609B0BDE8F083B378212B1F
:104A6000DAD1B6F80720072AD6D101681831EDE768
:104A7000012BD1D1B3780768202B36D0222BCBD194
:104A8000B6F80730002BC7D197F82030B6F80340AE
:104A90003C8403F0010304F00104A342B0D0A4B2AB
:104AA000002C0CBF03210221FFF774FB002CA7D1BF
:104AB0002B7A012B40F2D9806B7B05F10C02002B85
:104AC00000F0D580AB7BD05C0DF070FC2846FFF782
:104AD00071FF0DF06BFC07F134037C62FC62C7E9E7
:104AE0001E44C7E920447B67B4E7B6F80720072ACD
:104AF00092D13B73B6F8073008A8DBB200247B7371
:104B000000F8154D0E37CDE90573079400F04EFE01
:104B1000204605A9FFF740F9044630B9564B03A9D2
:104B2000CDE9033500F0C8F904469DF80B0000F00C
:104B300061FE8FE7037A002B00F09B80837A00F1FF
:104B40000901002B00F09380C27AB3788A5C9A4204
:104B50003FF456AF1B06F4780AD524B1032C0CBFE2
:104B60000024032476E701212846FFF713FB71E7B1
:104B7000012C3FF445AF04D3032C3FF441AF032491
:104B800068E70668FFF716FF3C4B059306F10C0338
:104B90000693B76A8046B7B9F36FF46AB767C6E998
:104BA0001F736CB106F12C0103C906F1240383E8DD
:104BB0000300F76205A94046FFF702F9044600E04A
:104BC00074620021D0E7D6F88490706A4F4528BF00
:104BD0004F4606F134043A4621460EF05AFEF36F72
:104BE0003B44C6F88030A9EB0703B367F36A0022A1
:104BF0003C44F2677467002B35D006F12C0999E824
:104C0000030006F1240787E803001446F262B36F3D
:104C1000706A1BB9746A002CCCD1D2E7B26A716F8A
:104C20009A4216D80EF035FEB36AB26FC6F88030DD
:104C3000D21AB267726F1A44726700212846FFF7D2
:104C4000A9FAF36A7BB199E8030087E80300F462EC
:104C5000DDE71A460EF01DFEB26FB36AF2679B1ACB
:104C6000B362736A13447362D4E76378FFDE1B7820
:104C7000FCE75B78FAE700BF8F4902005D4902005C
:104C80001FB503681B8CDC0714D5037A012B13D9DD
:104C9000437B00F10C0493B1837BE05C9306CDE988
:104CA00001120CBF0123002301A90393FFF774F83D
:104CB00004B010BD0820FBE700235B78FFDE1B7803
:104CC000FCE70000F7B50468238CDB070F461646A7
:104CD0003BD5656A002D32D1A16F91420ED3616F31
:104CE00038460EF0D6FDA36FC4F880609B1BA36707
:104CF000636F33446367284603B0F0BDC4E90972AB
:104D0000FFF758FE134B009304F10C030646019382
:104D100069B10A463846616F0EF0BBFDA36FA26A07
:104D2000D21AA262626AC4E91E531A4462626946D8
:104D30003046FFF745F8002808BF9220DCE7E36A19
:104D40002BB9C4E90B129220D6E70820D4E7112032
:104D5000D2E700BF5D490200002070472DE9F04F07
:104D600087B04B68029281460C465BB90B681B68A2
:104D70001B683BB98D682DB9C0E90055284607B0BE
:104D8000BDE8F08F0DF0B0F9E768029B9F4228BFA5
:104D90001F464FF0000804F1100383460197464672
:104DA00001250393019B002B2DD0A368019A616814
:104DB00093429A4628BF924641B352460BEB0600F7
:104DC0000EF067FD00236360A268E3680199A2EB1F
:104DD0000A02A3EB0A03A1EB0A01A260E3600191BE
:104DE00056440ABBB8F1000F38D022681268126826
:104DF0002260002B30D02368D3B963601EB1029BC0
:104E0000B34288BF0025C9E900B6B7E7002BDBD065
:104E1000216803984B680BEB0602D3F804805346D5
:104E2000C0474FF00108CFE7002B08BF0025B9E7C6
:104E30000DF1180A00234AF8083D21684B685B68A9
:104E400000221F4650460123B84708B92061A9E750
:104E5000A3680133A360F0E71D46A3E7002BCAD186
:104E600045469FE7084B1A7882420CD0052818BFA8
:104E7000064A187018BF137805481CBF23F00203B8
:104E80001370FFF72DB87047E896012004970120B2
:104E90002442030008B50020FEF71CFF8020BDE877
:104EA0000840FEF717BF08B50020FEF723FF80205B
:104EB000BDE80840FEF71EBF38B505460C460DF0AC
:104EC000B9F9A84203BFD4E90001034BC3E90001CB
:104ED000102008BF002038BD089701207FB5C38887
:104EE00093421D4628BF154693420E46144624D9C8
:104EF00080200DF035F8B4FBF0F303FB1040B0FA5E
:104F000080F04009039004A8002300F80D3DCDE98E
:104F1000016500F04BFC01A98020FEF73DFF04462F
:104F200020B907498020FFF7C7FF04469DF803001A
:104F300000F060FC204604B070BD0020E2E700BF36
:104F4000584203002DE9F04F0C78062C87B00E462E
:104F500000F0008220D8022C3DD003D8012C32D0A2
:104F60000624F1E1032C32D0052CF9D10DF10D000E
:104F7000B24D8DF80C400DF0F1F800232B609DF838
:104F80000D3003F01F02032A00F28881DFE812F0DF
:104F90002D0022017D0165000D2C00F0C98107D88C
:104FA0000B2C18D00C2CDBD10020FFF75BFF12E09C
:104FB0000E2C00F0CD81852CD2D1A14B1B78032B78
:104FC000CED1042000E00320FFF74CFFC8E79D4846
:104FD00000F0C9FD08B90024B6E19B4B01221A601C
:104FE000BFF36F8FBFF34F8FF5E7C3F34116A6BB37
:104FF000DB099DF80E1000F0A680062916D00829BE
:1050000000F0948049BB914C022220460EF04CFCEB
:10501000237843F0010222708D4A1278910744BF31
:1050200043F003032370022288490EE09DF81030FC
:10503000022B16D0032B69D0012B0ED1BDF81330F3
:10504000002B00F07281834912220DF10D00FFF751
:1050500045FF0446062C40F0298103A8FEF78AFE8E
:1050600011E1BDF81370002F00F05F81092F28BFF8
:105070000927FEF741FE4FF009080446B14674BB0C
:10508000724C75493A4620460EF003FC2671A4F88E
:105090000280FEF717FE18B1E37943F02003E371B5
:1050A000FEF72AFE6D4BC3E900049F60BDF8132094
:1050B000DA6001A800238DF8043000F077FB68491E
:1050C0008020FEF77DFE044620B966498020FFF768
:1050D000F3FE04469DF8040000F08CFBBAE7CDF81F
:1050E00004904FF0000A63680022D3F804B0214610
:1050F000012301A8D84730B9237A1E442368D0443D
:10510000F6B21C68BBE70AF1010AECE7BDF8133000
:10511000002B00F00A81BDF811109DF80F0000F07F
:1051200031FB0146002898D002788EE7444A127875
:10513000052A03D1454A1370012275E7042A8CD150
:10514000424B1E70F8E7032910D009292CD0012901
:1051500083D1BDF80F30012B7FF47FAFFEF7B2FD96
:1051600060B13B4A137823F002030FE0BDF80F3023
:10517000012B7FF472AFFEF7A5FD18B90F240DF0D7
:1051800056F8E1E0324A137843F0020313702B68BB
:10519000002B00F0CA800DF04DF8044600287FF483
:1051A0001AAF0DF001F8CFE0254B1B78043B012B23
:1051B00001D90824E3E79DF80F302BB9FEF77CFEF8
:1051C0000420FFF74FFEE2E7012B55D1FEF760FE0A
:1051D0000520F6E701A99DF81100FEF793FD0746AB
:1051E00008B91024CBE703AA9DF80410FEF7A2FD2E
:1051F000062804465AD19DF80D2012F0600FBED14A
:105200000F4B9DF8041018789DF80E30D6092BD05E
:1052100073B10A2BB3D10528CBD13846FEF732FE45
:105220000A49324608700DF10D00FFF757FE2AE0DB
:105230000528BED105490B800222F4E7089701201A
:10524000E8960120109701205C700240149701201D
:10525000049701204442030025420300EC960120FC
:1052600060420300584203000B2B88D10528A0D1CF
:10527000BDF80F30FF2B01D9072480E79DF80F20E0
:105280003846FEF7B1FD044610E09DF81100020714
:1052900006D19DF80D3013F0600F0BD006246EE799
:1052A00003A9FEF74AFD06280446F2D0002C3FF47D
:1052B0006EAF64E79DF80E20384B9DF811401B78C7
:1052C000012A1ED012D3032AE8D104F00F02072AC4
:1052D000E4D8BDF80F100029E0D1052B02D0002A38
:1052E0007FF467AF20460CF003FF50E7052B02D098
:1052F00023077FF45EAF20460CF006FF28490880A4
:105300009AE704F00F02072AC8D8BDF80F10002949
:10531000C4D1052B02D0002A7FF44BAF20460CF0FD
:105320000DFF20460DF046FA31E70CF07DFF52E606
:105330004FF08043D3F8384414F0010401D0022028
:1053400033E60120FFF78EFD204607B0BDE8F08F61
:1053500001202AE6C8780328F6D0124D2B68DBB16D
:1053600000222A6069689847044600287FF407AF46
:105370002B6823B1B378002B7FF42DAE11E70A4BD5
:105380001B68082B7FF427AE084B1B68002B3FF4EB
:1053900022AE0CF049FFD7E70E24F0E6E896012094
:1053A00014970120089701203001001034010010EB
:1053B00008B1402303600148704700BF14970120E3
:1053C00070B50D7A0DB101F10905046840F25F1660
:1053D000B44200F0E380B4F5B07F40D2B4F5AD7FC5
:1053E00000F0AB8020D840F25716B44200F08B801A
:1053F000B4F5AC7F05D2002C7FD0002303601846A3
:1054000080E000F08B8040F25915AC42F5D10024C9
:105410000AB105791555013400259C420571C0F08B
:105420008D804FF4AD7377E0B4F5AE7F00F09D80D2
:10543000C0F08F8040F25D15AC4200F0A280B4F560
:10544000AF7FDAD100240AB1057915550134002562
:105450009C420571C0F0A38040F25F135CE040F213
:105460006715AC4200F0C080B4F5B47F2DD240F295
:105470006315AC4200F09F80B4F5B27F0FD2B4F553
:10548000B17FBAD100240AB105791555013421251F
:105490009C420571C0F0908040F263133CE040F202
:1054A0006515AC4200F09380B4F5B37FA5D100241C
:1054B0000AB1057915550D8A01342D0A9C420571F2
:1054C000C0F0938040F2671326E040F26915AC42C9
:1054D00000F0A380B4F5B47F40F29280B4F5B57FBC
:1054E00000F0A78040F26B139C4286D100240AB1E1
:1054F0000379135540F26D130EE00924047113B9BA
:105500000660012070BD0AB1047914700424012BD7
:10551000047110D84FF4AC730360F2E700240AB1B1
:105520000679165501342D7805719C42FFF470AF51
:1055300040F25913F0E70124F1E700240AB105799C
:105540001555013400259C42057103D340F25B13CD
:10555000E2E700240AB1057915550134FF259C4284
:10556000057103D34FF4AE73D6E700240AB1057971
:105570001555013401259C42057103D340F25D139A
:10558000CAE700240AB105791555013401259C426A
:105590000571FFF458AF4FF4AF73BDE700240AB1B3
:1055A00005791555013409259C420571FFF46BAF4F
:1055B0004FF4B173B0E700240AB1057915550134F1
:1055C00009259C42057103D340F26513A4E700242A
:1055D0000AB10579155501340D8A05719C42FFF415
:1055E00067AF4FF4B37397E700240AB105791555F7
:1055F00001344D8A05719C4203D34FF4B4738BE799
:1056000000240AB1057915554D8A01342D0A9C42B2
:10561000057103D340F269137EE700240AB10579CE
:10562000155501348D8A05719C4203D34FF4B5732F
:1056300072E700240AB105791555898A0134090AEF
:105640009C420171FFF453AF40F26B1364E7F0B575
:105650000A780E2A85B006460D4614D801239340D9
:1056600047F64F02134202D0002005B0F0BD9B0662
:1056700009D54A78D1094FEA521330D013F0030309
:1056800003D0012B1DD00620EFE702F01F02012AF4
:10569000F9D1AC78062CF6D103A80293FFF788FE67
:1056A00002AB009307460346EA7829793046FEF7B5
:1056B000AFF90528E7D0029A3946681CFFF70EFCBF
:1056C000D3E7AB78072B04D0082BDCD1C268816903
:1056D000F3E7B5F80720182AD5D1C169EDE7012B0A
:1056E000D1D1AC78002CCED102681373036A002BA1
:1056F000BAD021469847B7E770B54FF0805286B0D0
:10570000D2F8A830D2F8A42000926FEA83436FEA5F
:10571000934302AD9BB2094A094E0D2128460EF073
:10572000CBF8002428460EF0FBF8844201D306B0E3
:1057300070BD2B5DA3550134F4E700BF7C4203002C
:10574000EC2F022010B50E4B53F8204023780BB9F4
:10575000A01C10BD0020FFF72BFE2246E4B2131B55
:1057600012F8011BDBB231B901335B00DBB243F449
:1057700040730380EDE7131BDBB220F81310EEE754
:10578000D442030008B9FFF7DDBF052807D8054A52
:10579000105C20B1044B53F82030002BF3D10020D3
:1057A000704700BFEC420300D442030070B5EFF332
:1057B000108672B60C4A946801239CB993600B4B17
:1057C0000B4DD3F8801029401160C3F88050D3F8F6
:1057D000841051604FF0FF32C3F88420047006B982
:1057E00062B670BD0370FAE7FC2F022000E100E012
:1057F000FC06FFBD10B5084B9A685AB150B9EFF3DB
:10580000108172B6054A1C6814605C685460986028
:1058100001B962B610BD00BFFC2F022000E100E01C
:105820002AB113880144884204D1184670474FF6C4
:10583000FF73F7E75BBA10F8012B9BB25A40C2F333
:105840000313534083EA03331BB25A0102F4FF529D
:1058500053409BB2E7E7435882B03BB1002343502B
:1058600043580193019B012002B070471846FBE7A3
:1058700030B51B4C437944F823201A4C04EBC30386
:105880001B7953BB03680A88C3F8082590F90430D4
:105890008A78002B4FEA4212AFBF03F1604303F056
:1058A0000F031149D2B2A9BF03F56143CA54D2B262
:1058B00083F8002390F904300C495D09012203F0BC
:1058C0001F0302FA03F341F82530437904EBC301C7
:1058D00044F833000A71002030BD0820FCE700BF07
:1058E0005C9701205497012014ED00E000E100E0F6
:1058F000036801221A607047036801225A607047EA
:10590000F7B504461E464FF4803523688D40C3F832
:10591000085323688800C3F8485300F5A07322F0A9
:105920007F479BB222680021D1502168D358019350
:105930000144019BD1F84035C1F840752268D2F886
:1059400004259B1A23F07F43012B05D1104B4FF404
:10595000046043F0010398472368C3F84453216867
:10596000D1F80425BF1A27F07F433A0226F07F467C
:1059700048BF43F07F4376429E4201DA022B04DDAA
:10598000C1F80453002003B0F0BD0D20FBE700BFB9
:105990000043030002680223C2F8443311B10268D5
:1059A000C2F8043370474FF482710068FFF753BFA9
:1059B000890001F5A07189B20068FFF74CBF036848
:1059C000D3F804057047000090F9043001215A090A
:1059D00003F01F0301FA03F34032024941F8223079
:1059E000704700BF00E100E0024B034A1B681068EB
:1059F000184700BF5C9701205497012010B561B192
:105A0000B2FBF3F403FB1424A4B244B9C0E90014BC
:105A100084608281C381204610BD0E20FCE70920EE
:105A2000FAE737B550E8013F9DB2C489254484891F
:105A3000A54228BF2D1B0489A54202BFBFF32F8FAB
:105A4000002207E0C5EA030540E80154002CE9D133
:105A50004FF001028DF803200193019B9DF8032074
:105A60000B6002F0FF0322B10B880068184403B0FA
:105A700030BD1846FBE70A884B889A4209D150E8A6
:105A8000012FC2EA024240E80123002BF7D1012096
:105A900070470020704737B550E8023F1FFAA3F562
:105AA000C488A54202BFBFF32F8F00220DE0C48936
:105AB00025448489A54228BF2D1BC3EA054540E83B
:105AC0000254002CE8D14FF001028DF8032001931D
:105AD000019B9DF803200B6002F0FF0322B14B886D
:105AE0000068184403B030BD1846FBE70A884B88AD
:105AF0009A4209D150E8022FC2EA224240E802232A
:105B0000002BF7D1012070470020704750E8002F8C
:105B10000B4640E8003C9CF0000FF7D11046704760
:105B200050E8002F02EA010340E8003C9CF0000F1F
:105B3000F6D11046704750E8003F03EB010240E801
:105B4000002C9CF0000FF6D11046704750E8003F43
:105B50008B422CBF5A1A1A4640E8002C9CF0000FCA
:105B6000F4D1104670470021FFF7DABF10B590B1AD
:105B7000D0E9012301689B1ADBB20A60013BDBB26A
:105B8000FF2B026802D10020107110BD11684C1C5F
:105B900014600B70F2E70E20F7E737B5054602A850
:105BA000002400F8014DFFF701FE2A6869681368B8
:105BB0008B4210D9591E116013F8014C2A8AEB68E8
:105BC00002FB04342A68AB6811685B1A1179DBB2F6
:105BD000994238BF13719DF80700FFF70BFE20466E
:105BE00003B030BD37B5054602A8002300F8013DDB
:105BF0000C46FFF7DBFD2A681368591C1160E96841
:105C0000641A298AB4FBF1F41C709DF80700FFF7B1
:105C1000F1FD03B030BD026813685268934291BF32
:105C2000D01A80680130801888BFC01A7047036896
:105C300081681A685B688B4234BF01330023D31A32
:105C4000584258417047F7B5044602A8002300F8AF
:105C5000013D0D46FFF7AAFD2046FFF7E8FF10B112
:105C6000237C002B3DD12168A6684B684A68B2426C
:105C700034BF013200224A6038B12168A0680A6846
:105C8000824234BF013200220A60E2686068511E1D
:105C9000072920D8DFE801F004101F141F1F1F1868
:105CA0002A78C2542046FFF7B6FF23689A688242DA
:105CB00000D29860002415E02A8820F81320F1E72C
:105CC0002A6840F82320EDE7D5E9006700EBC30020
:105CD000C0E90067E6E7294603FB02000DF0D9FDA5
:105CE000E0E704249DF80700FFF784FD204603B099
:105CF000F0BD37B5054602A8002400F8014DFFF7B6
:105D000055FD0C22214628680DF0CEFD9DF80700B8
:105D1000FFF770FD03B030BD13B5044602A80023A1
:105D200000F8013DFFF742FD2046FFF774FF0446EF
:105D30009DF80700FFF75EFD204602B010BD036826
:105D400018685B68C31A58425841704773B50546D6
:105D500002A8002300F8013D0C461646FFF726FD79
:105D60002846FFF7ECFF002832D129680B682EB9CE
:105D70000A68A868824238BF561C0E60EA686968E3
:105D8000501E07281ED8DFE800F0040E1D121D1D4E
:105D90001D16CB5C237000249DF80700FFF72AFD39
:105DA000204602B070BD31F813302380F3E751F87C
:105DB00023302360EFE701EBC301D1E90023C4E9FD
:105DC0000023E8E703FB021120460DF062FDE2E745
:105DD0000524E1E701600B6843604A68934204BF11
:105DE000002343607047436843B1026891680B44E5
:105DF00043605268934204BF00234360704770B50C
:105E0000446806460D46206818B1B368294698478D
:105E100018B923682B60256070BD2468F3E74368D8
:105E2000186808B102681A607047436818687047BC
:105E3000006870474368186800B970478842026874
:105E400002D11A600120704703461046F4E70000B3
:105E5000054B1B68082B01BF044B1868B0FA80F093
:105E6000400918BF002070473001001034010010B5
:105E700008B54FF080430022C3F80C21C3F810216D
:105E8000C3F838254FF0805203F54043D2F804148C
:105E9000C3F82015D2F80814C3F82415D2F80C144E
:105EA000C3F82815D2F81014C3F82C15D2F814141E
:105EB000C3F83015D2F81814C3F83415D2F81C14EE
:105EC000C3F84015D2F82014C3F84415D2F82414AE
:105ED000C3F84815D2F82814C3F84C15D2F82C147E
:105EE000C3F85015D2F83014C3F85415D2F834144E
:105EF000C3F86015D2F83814C3F86415D2F83C140E
:105F0000C3F86815D2F84014C3F86C15D2F84424CD
:105F1000C3F87025FFF79CFF10B1384B384A1A6060
:105F2000FFF796FF18B1374BFB22C3F81825FFF790
:105F30008FFF48B13449354B0A681B6822F00F02C5
:105F400003F00F0313430B60FFF782FF18B1304BD0
:105F50004FF400721A604FF08043D3F80024D20748
:105F600044BF6FF00102C3F800242A4AD2F88830F7
:105F700043F47003C2F88830BFF34F8FBFF36F8FC5
:105F80004FF01023D3F80022002A03DBD3F80432A9
:105F9000002B2FDA204B0122C3F80425D3F800246C
:105FA000002AFBD04FF010221221C2F80012D3F8C1
:105FB0000024002AFBD04FF010231222C3F8042241
:105FC000154B1A46D3F800140029FBD00021C3F862
:105FD0000415D2F80034002BFBD0BFF34F8F0D49CE
:105FE0000E4BCA6802F4E0621343CB60BFF34F8FDD
:105FF00000BFFDE70A4B0B4A1A6008BD8C560040F3
:106000004881030000F00040E40E004058020010F8
:106010004096024000ED00E000E001400400FA0577
:10602000909301200090D00399B90A4B1B681F2B55
:1060300088BF03F01F0303F5E0718CBF064A4FF0E1
:10604000A042032042F82100012101FA03F3C2F823
:106050000C3570478C970120000300502DE9F84F54
:10606000294E3278002A4CD1284B294918602948FA
:10607000294B2A4D5A72091A596004211972DA7291
:106080001A735A739A73DA7301214FF080521860B1
:10609000997211695961526921484A431A610DF098
:1060A0003FFC01302C184FF06108A9464FF02D0A33
:1060B0004FF0300B48460DF033FC671B874207D387
:1060C0001848FDF7ABFD08B901233370BDE8F88F20
:1060D000237823F02002413A192A0FD92B3BDBB257
:1060E0000E2B05D847F6ED7222FA03F3DA0705D432
:1060F000B8F12D0F14BF53465B46237014F8018B83
:10610000D8E70020E2E700BF609701208C970120CC
:106110003C49030000300200749701209493012051
:106120002C4303000843030040B149B10378602BBE
:1061300006D1012914BF0920002070470E207047A6
:106140000720704713460A460146602006F005BA4C
:106150007FB50C461D46064610B90E2004B070BD32
:1061600009B90720FAE70378682BFAD101230393D2
:10617000002AF2D0002DF0D02B68002BEDD0134672
:1061800003AA06F01AFA0028E8D100902B4603AAC9
:106190002146304606F01EFD0028DFD1039B9C42BD
:1061A00018BF0920DAE700002DE9FF41DDF828805B
:1061B0000190164600930F4609B90E2019E0002AF7
:1061C000FBD000231568039368238DF80B302A4613
:1061D00003AB0DF10B0006F035FA50B903AB2A46BC
:1061E000394601A806F0CFF918B9019B23B1039BEA
:1061F000336004B0BDE8F081B8F1000FDDD003AB2F
:106200002A463946684606F0BEF90028F1D1009BBF
:10621000212B1CD00ED8022B15D0202B15D0012BF2
:10622000CBD10F4C03AB2A4639464046A047002845
:10623000DDD0DEE7232B0ED00BD3242B0DD0252B66
:10624000BBD1084CEEE7084CECE7084CEAE7084CF9
:10625000E8E7084CE6E7084CE4E7084CE2E700BF53
:1062600025CA0200719402003FCB0200DB910200BC
:1062700035920200B5920200EF920200ED95020005
:106280002DE9FF410E4690461D46074608B90E24EB
:1062900001E021B90724204604B0BDE8F08103786D
:1062A000672BF7D101230393002AF0D0002DEED005
:1062B0002B68002BEBD0134603AA06F07EF90446A8
:1062C0000028E8D100902B4603AA3146384606F054
:1062D00081FC04460028DED12B6863B3D8F8002087
:1062E000222A20D012D8022A19D009D8012ACED1C8
:1062F000134D03AA31463846A847E0B10446CAE721
:10630000202A0ED0212AC2D10E4DF2E7242A10D025
:106310000DD3252A09D0262AB9D10B4DE9E70B4D1B
:10632000E7E70B4DE5E70B4DE3E70B4DE1E70B4DE1
:10633000DFE70B4DDDE7039B9E4218BF0924AAE768
:106340007DCA020075920200359602005FCB020002
:1063500007920200D59202009F9402000F93020060
:106360000D96020013460A460146672006F0F5B86E
:106370007FB50C461D46064610B90E2004B070BD10
:1063800009B90720FAE70378662BFAD101230393B2
:10639000002AF2D0002DF0D02B68002BEDD0134650
:1063A00003AA06F02EF90028E8D1074B009303AAB0
:1063B0002B462146304606F00DFC0028DED1039B1B
:1063C000A34218BF0920D9E7D5CA020013460A46DE
:1063D0000146662006F0C1B8F0B50D4685B0064608
:1063E000F0B111B9072005B0F0BD0478632CF9D1E4
:1063F00004AC012744F8047D0092224606F03FFADF
:106400000028F0D100900A9B22462946304606F02B
:10641000E1FB0028E7D1039BAB4218BF0920E2E76C
:106420000E20E0E7F0B587B0144603901F460E46F5
:1064300029B322B300231568059363238DF8133025
:106440002A4605AB0DF1130006F0FCF8A8B905AB20
:106450002A46314603A806F096F870B9039B13B19B
:10646000059B236009E0074B00932A4605AB3146A4
:10647000384606F092FB0028F2D007B0F0BD0E209F
:10648000FBE700BF95C90200F0B585B00C461F467A
:106490000A9E054610B90E2005B0F0BD09B90720C7
:1064A000FAE70378642BFAD101230393002AF2D090
:1064B000002FF0D0002EEED01368002BEBD03B68FD
:1064C000002BE8D03368002BE5D0104B0093134627
:1064D00003AA06F07FFB0028DED10023009303AA65
:1064E0003B462146284606F075FB0028D4D1009093
:1064F000334603AA2146284606F06CFB0028CBD180
:10650000039B9C4218BF0920C6E700BFC3C9020015
:106510002DE9F04387B017460390DDF838908DF8E9
:106520000B308846002939D0002A37D0002315685F
:10653000059305AE64238DF813302A4633460DF1DA
:10654000130006F07FF8044658B933462A46414600
:1065500003A806F018F8044618B9039B2BB1059B55
:106560003B60204607B0BDE8F08333462A464146EB
:106570000DF10B0006F066F804460028F1D1B9F1E0
:10658000000FECD09DF80B1000962B464246484673
:1065900006F0A3F90028E2D00446E2E70E24E0E783
:1065A0007FB50C461D46064610B90E2004B070BDDE
:1065B00009B90720FAE70378622BFAD10123039384
:1065C000002AF2D0002DF0D01368002BEDD02B68FC
:1065D000002BEAD00A4B0093134603AA06F0FAFAFE
:1065E0000028E3D100902B4603AA2146304606F04E
:1065F000F1FA0028DAD1039B9C4218BF0920D5E7A5
:106600000DCA0200F0B587B0144603901F460E462F
:1066100029B322B300231568059362238DF8133044
:106620002A4605AB0DF1130006F00CF8A8B905AB2E
:106630002A46314603A805F0A6FF70B9039B13B1A3
:10664000059B236009E0074B00932A4605AB3146C2
:10665000384606F0A2FA0028F2D007B0F0BD0E20AE
:10666000FBE700BF45C602001FB50C46134610B934
:106670000E2004B010BD09B90720FAE70278652A98
:10668000FAD101220392002BF2D01A68002AEFD02F
:106690000022009203AA06F09DFA0028E9D1039B8C
:1066A0009C4218BF0920E4E7F0B585B0144601907C
:1066B0001E460F4611B90E2005B0F0BD002AFAD0D3
:1066C00000231568039365238DF80B302A4603AB2E
:1066D0000DF10B0005F0B6FF0028EDD103AB2A4603
:1066E000394601A805F04FFF0028E5D1019B13B101
:1066F000039B2360E0E7002EDDD003AB2A4639463A
:10670000304606F0FEF90028F2D0D5E713B513465F
:1067100010B90E2002B010BD09B90720FAE70278BF
:10672000672AFAD101220192002BF2D001AA05F0CA
:1067300044FFEFE72DE9F043884685B014461D4637
:10674000814620B90E26304605B0BDE8F08309B970
:106750000726F8E70378692BFAD104AF012347F83D
:10676000043D13463A4605F028FF06460028EAD1C4
:1067700000902B463A464146484606F02BFA06461C
:106780000028E0D12B6823B9039B434518BF092695
:10679000D9E72268232A34D00ED8202A1DD004D865
:1067A000012A34D00024254619E0212A26D0222AA5
:1067B000F8D19C1C1F4D12E0412A2BD006D8242A68
:1067C00022D0402AEED11C461B4D08E0A02A24D03E
:1067D000A12AE7D11C46194D01E0194D9C1C203A15
:1067E000032A1DD9002DADD0002CABD023463A464C
:1067F00041464846A8470028C6D018E09C1C114DC9
:10680000EDE79C1C104DEAE79C1C104DE7E71C4689
:106810000F4DE4E71C460F4DE1E71C460E4DDEE749
:106820003A464146484605F01AFF0028DAD00646A7
:1068300089E700BFC3BB02009D960200FFBB0200B8
:106840006F96020021A90200A598020079C40200F7
:1068500087CB0200CD940200D7BB020013460A4644
:106860000146692005F079BEF7B50E461546074684
:10687000E8B1E2B102AC002344F8043D531C2246C7
:1068800005F0EDFE88B92B4622463146384605F024
:10689000E6FE50B96B1D22463146384605F0DFFE54
:1068A00018B9019B9E4218BF092003B0F0BD0E200D
:1068B000FBE71FB51446019069B162B104AB002239
:1068C00043F8042D01A8226805F05DFE08B9039B7A
:1068D000236004B010BD0E20FBE710B4002A00F0C6
:1068E0005A81002B00F05781002800F05481048861
:1068F000013C762C00F24981DFE814F07B00770040
:106900004701470147014701470147014701470147
:1069100047014701470147014701AB00A7007F003E
:1069200087008B009300B3009700B7008F009B0097
:10693000A3009F003F01AF0083004301BF00BB00E5
:10694000C300C7004701470147014701470147010D
:1069500047014701470147014701D700EB00CB0042
:10696000CF00F300D300DF00EF00E700DB00F7000B
:10697000E300FB0047014701470147014701470189
:1069800047014701470147014701470147014701C7
:10699000470147014701470147010B010F0113015F
:1069A000FF000701170103011B01470147014701D0
:1069B0004701470147014701470147014701470197
:1069C0004701470147014701470147014701470187
:1069D000470147014701470147011F0123012701E3
:1069E0002B012F01330137013B015DF8044B00F00F
:1069F000D4B85DF8044B00F016B95DF8044B01F013
:106A000025BB5DF8044B01F04FBB5DF8044B01F072
:106A10005ABD5DF8044B01F028BD5DF8044B01F050
:106A2000C1BA5DF8044B01F07BBC5DF8044B01F08A
:106A30008BBA5DF8044B01F065BB5DF8044B01F0C7
:106A4000B0BC5DF8044B01F09ABD5DF8044B01F059
:106A5000B5BB5DF8044B01F083BB5DF8044B01F05E
:106A600060BD5DF8044B01F0EDBB5DF8044B01F037
:106A700017BC5DF8044B01F0B0BD5DF8044B01F0AC
:106A8000EABD5DF8044B01F014BE5DF8044B01F063
:106A90003EBE5DF8044B03F081B95DF8044B03F092
:106AA00034BA5DF8044B03F0B6B95DF8044B03F05B
:106AB000A6BA5DF8044B03F065BA5DF8044B03F029
:106AC000DBBA5DF8044B03F051BB5DF8044B03F0F7
:106AD0008ABB5DF8044B03F00CBB5DF8044B03F07C
:106AE000D7B95DF8044B03F01CB95DF8044B03F013
:106AF000B7BB5DF8044B03F0F0BB5DF8044B04F04A
:106B000067BC5DF8044B04F0E3BC5DF8044B04F093
:106B10008CBC5DF8044B04F009BD5DF8044B04F037
:106B2000FDBB5DF8044B04F0A6BC5DF8044B04F01B
:106B300055BD5DF8044B04F07EBD5DF8044B05F0D7
:106B400055BA5DF8044B05F08EBA5DF8044B05F0BC
:106B5000C7BA5DF8044B05F0F8BA5DF8044B05F0D0
:106B600021BB5DF8044B05F070BB5DF8044B05F0EC
:106B7000A1BB5DF8044B05F006BC5DF8044B01F0C9
:106B8000B5B95DF8044B01F03ABC00221A6006204A
:106B90005DF8044B70470E20FAE7F0B5154685B056
:106BA0001F46044600283AD0002A38D0002B36D0A1
:106BB0000388022B35D13E68ADF80A3000220392DB
:106BC00003AB324629460DF10A0005F009FD20BB52
:106BD00003AB32462946201D05F002FDE8B903ABA0
:106BE0003246294604F1080005F02CFDA8B903AB94
:106BF0003246294604F1100005F0F2FC68B9009015
:106C000003AB32462946E06805F0C7FF28B9A088E3
:106C100006F0AAF808B9039B3B6005B0F0BD0E2052
:106C2000FBE70720F9E7F7B515461E46044620B3F3
:106C30001AB313B30388012B21D13768ADF80230A2
:106C40000022019201AB3A4629460DF1020005F0FF
:106C5000C7FC80B901AB3A462946201D05F0C0FCAF
:106C600048B901AB3A46294604F1080005F0EAFCB0
:106C700008B9019B336003B0F0BD0E20FBE707208D
:106C8000F9E7F0B585B00C460B9E054610B90E200D
:106C900005B0F0BD09B90720FAE70778722FFAD1DD
:106CA00001270397002BF2D0002EF0D0009313465B
:106CB00003AA05F0E4FD0028EAD100960A9B03AA86
:106CC0002146284605F0DBFD0028E1D1039BA342C5
:106CD00018BF0920DCE713460A460146722005F07A
:106CE0003CBC00007FB50C461E46054610B90E2080
:106CF00004B070BD09B90720FAE70378732BFAD105
:106D000001230393002AF2D01368002BEFD05B68B5
:106D1000002BECD00A4B0093134603AA05F05AFF50
:106D20000028E5D1334603AA2146284605F097FC02
:106D30000028DDD1039BA34218BF0920D8E700BF7C
:106D4000F593020013460A460146732005F005BC80
:106D500013460A460146742005F0FFBB1FB50C46DA
:106D6000134610B90E2004B010BD09B90720FAE788
:106D70000278792AFAD101220392002BF2D01A6804
:106D8000002AEFD00022009203AA05F023FF00287A
:106D9000E9D1039B9C4218BF0920E4E7F0B587B016
:106DA000144603901F460E4629B322B300231568EC
:106DB000059379238DF813302A4605AB0DF11300A6
:106DC00005F040FCA8B905AB2A46314603A805F0FA
:106DD000DAFB70B9039B13B1059B236009E0074BF5
:106DE00000932A4605AB3146384605F0D6FE00280A
:106DF000F2D007B0F0BD0E20FBE700BFE1C50200F6
:106E000013B513460C4610B90E2002B010BD09B9D7
:106E10000720FAE70278782AFAD101220192002BA2
:106E2000F2D001AA05F0EDFB0028EED1019BA342B0
:106E300018BF0920E9E713460A460146782005F005
:106E40008CBB7FB50C461E46054610B90E2004B01B
:106E500070BD09B90720FAE70378802BFAD1012326
:106E60000393002AF2D0002EF0D0134603AA05F0B7
:106E7000C8FB0028EBD1334603AA2146284605F07B
:106E8000EEFB0028E3D13378012B04D004D3022B8E
:106E9000E0D1102000E0062080B2CDE90000089B80
:106EA00003AA2146284605F0B4FC0028CFD1039B55
:106EB0009C4218BF0920CAE713460A4601468020B3
:106EC00005F04BBB7FB50C461D46064610B90E209B
:106ED00004B070BD09B90720FAE703787E2BFAD118
:106EE00001230393002AF2D0002DF0D02B68002B51
:106EF000EDD0134603AA05F084FB0028E8D1074B28
:106F0000009303AA2B462146304605F063FE002875
:106F1000DED1039BA34218BF0920D9E7E98902000B
:106F200013460A4601467E2005F017BB7FB50C4686
:106F30001D46064610B90E2004B070BD09B90720E1
:106F4000FAE70378752BFAD101230393002AF2D0D4
:106F5000002DF0D02B68002BEDD0134603AA05F0CE
:106F600050FB0028E8D1074B009303AA2B4621468B
:106F7000304605F02FFE0028DED1039BA34218BF48
:106F80000920D9E7FF8D020013460A460146752005
:106F900005F0E3BA7FB50C461E46054610B90E2033
:106FA00004B070BD09B90720FAE70378872BFAD13E
:106FB00001230393002AF2D0134603AA05F021FB14
:106FC0000028EDD10090334603AA2146284605F05B
:106FD00001FE0028E4D1039BA34218BF0920DFE78C
:106FE000F0B587B00F4603901C46154632B32BB35D
:106FF00000232668059387238DF81330324605ABAE
:1070000029460DF1130005F01DFBA8B905AB32466A
:10701000294603A805F0B7FA70B9039B13B1059B85
:10702000236009E0064B0093324605AB29463846FB
:1070300005F0B3FD0028F2D007B0F0BD0E20FBE74D
:10704000E5880200F0B50C4685B01646054610B935
:107050000E2005B0F0BD09B90720FAE707787D2FAB
:10706000FAD101270397002BF2D00A4A009203AA13
:1070700005F0B0FD0028ECD10090334603AA21466C
:10708000284605F0A7FD0028E3D1039BA34218BFC3
:107090000920DEE703C602002DE9F04786B08A46E4
:1070A00003909146DDF838801D46002B3ED0B8F1A4
:1070B000000F3BD00023D8F80060059305AF7D2377
:1070C0008DF8133032463B4629460DF1130005F08A
:1070D000B9FA044660B93B463246294603A805F092
:1070E00052FA044620B9039B33B1059BC8F800301F
:1070F000204606B0BDE8F0870D4B009332463B4674
:107100002946484605F049FD04460028F0D1B9F16A
:10711000000FEAD0B9F80010009733462A465046CF
:1071200005F0DBFB0028E0D00446E1E70E24DFE7B2
:10713000E1C50200F0B585B00C461E460A9F054623
:1071400010B90E2005B0F0BD09B90720FAE70378A1
:107150007C2BFAD101230393002AF2D0002EF0D029
:10716000002FEED00A4B0093134603AA05F032FD20
:107170000028E7D10097334603AA2146284605F0A8
:1071800095FB0028DED1039BA34218BF0920D9E755
:10719000BB89020013460A4601467C2005F0DDB992
:1071A00073B50C461E46054610B90E2002B070BDE0
:1071B00009B90720FAE70378762BFAD10123019366
:1071C000002AF2D0002EF0D0134601AA05F019FAD9
:1071D0000028EBD1334601AA2146284605F03FFAA4
:1071E0000028E3D1019BA34218BF0920DEE7134624
:1071F0000A460146762005F0B0B90000F0B585B02A
:107200000C461F460A9E054610B90E2005B0F0BD7B
:1072100009B90720FAE70378852BFAD101230393F4
:10722000002AF2D0002EF0D0002FEED03368002BD1
:10723000EBD03B68002BE8D0134603AA05F0E1F938
:107240000028E3D10C4B009303AA3B462146284675
:1072500005F0C0FC0028D9D1084B009303AA33469F
:107260002146284605F0B6FC0028CFD1039B9C425E
:1072700018BF0920CAE700BF498E0200318C020006
:1072800013460A460146852005F067B973B50C46DA
:107290001E46054610B90E2002B070BD09B9072080
:1072A000FAE70378822BFAD101230193002AF2D066
:1072B000002EF0D0134601AA05F0A3F90028EBD167
:1072C000334601AA2146284605F0C9F90028E3D132
:1072D000019BA34218BF0920DEE713460A46014678
:1072E000822005F03AB900007FB50C461E460546DF
:1072F00010B90E2004B070BD09B90720FAE7037871
:10730000812BFAD101230393002AF2D0002EF0D072
:10731000134603AA05F075F90028EBD1074B00933B
:1073200003AA33462146284605F054FC0028E1D143
:10733000039BA34218BF0920DCE700BF379302007C
:1073400013460A460146812005F007B9F0B585B01D
:107350000C461F460A9E054610B90E2005B0F0BD2A
:1073600009B90720FAE70378832BFAD101230393A5
:10737000002AF2D0002EF0D0002FEED0134603AA40
:1073800005F03FF90028E9D10B4B009303AA3B46D7
:107390002146284605F01EFC0028DFD10090334628
:1073A00003AA2146284605F015FC0028D6D1039BE8
:1073B000A34218BF0920D1E7998C0200F0B587B02D
:1073C0000F4603901C46154632B32BB300232668A4
:1073D000059383238DF81330324605AB29460DF112
:1073E000130005F02FF9A8B905AB3246294603A8CA
:1073F00005F0C9F870B9039B13B1059B236009E040
:10740000064B0093324605AB2946384605F0C5FBCE
:107410000028F2D007B0F0BD0E20FBE75193020028
:107420002DE9FF410A9E0C469846054618B90E20E4
:1074300004B0BDE8F08109B90720F9E70378842B8F
:10744000FAD101230393002AF1D0B8F1000FEED056
:10745000002EECD0134603AA05F0D3F80028E7D19C
:107460000B4F0097434603AA2146284605F0B2FB7E
:107470000028DDD10097334603AA2146284605F0AF
:10748000A9FB0028D4D1039BA34218BF0920CFE752
:107490009D93020013460A460146842005F05DB81C
:1074A0001FB50C46134610B90E2004B010BD09B923
:1074B0000720FAE702787B2AFAD101220392002BF7
:1074C000F2D01A68002AEFD0012901D80920ECE790
:1074D0000022009203AA05F07DFB0028E5D1039B62
:1074E0009C42E2D0F2E70000F0B587B0144603906A
:1074F0001F460E4629B322B30023156805937B234C
:107500008DF813302A4605AB0DF1130005F09AF8FB
:10751000A8B905AB2A46314603A805F034F870B97E
:10752000039B13B1059B236009E0074B00932A4698
:1075300005AB3146384605F030FB0028F2D007B0E5
:10754000F0BD0E20FBE700BF898D02001FB50C4681
:10755000134610B90E2004B010BD09B90720FAE790
:1075600002787A2AFAD101220392002BF2D0064A3D
:10757000009203AA05F02EFB0028ECD1039BA34246
:1075800018BF0920E7E700BFFF8D020013460A4637
:1075900001467A2004F0E1BF7FB50C461D46064641
:1075A00010B90E2004B070BD09B90720FAE70378BE
:1075B0008E2BFAD101230393002AF2D0002DF0D0B4
:1075C0002B68002BEDD0134603AA05F01AF800280B
:1075D000E8D100902B4603AA2146304605F0FAFA7E
:1075E0000028DFD1039B9C4218BF0920DAE7000086
:1075F000F0B587B0144603901F460E4629B322B358
:107600000023156805938E238DF813302A4605ABA9
:107610000DF1130005F016F8A8B905AB2A4631465E
:1076200003A804F0B0FF70B9039B13B1059B23605E
:1076300009E0074B00932A4605AB3146384605F072
:10764000ACFA0028F2D007B0F0BD0E20FBE700BF77
:1076500045C60200F7B5089E0C461F46054610B900
:107660000E2003B0F0BD09B90720FAE70378882B94
:10767000FAD101230193002AF2D0002FF0D0002E7E
:10768000EED0134601AA04F0BCFF0028E9D13B4626
:1076900001AA2146284604F0E2FF0028E1D1334642
:1076A00001AA2146284604F0DAFF0028D9D1019B1F
:1076B000A34218BF0920D4E713460A460146882092
:1076C00004F04BBF13B513460C4610B90E2002B0A0
:1076D00010BD09B90720FAE70278892AFAD10122F8
:1076E0000192002BF2D001AA04F08BFF0028EED10A
:1076F000019BA34218BF0920E9E713460A46014649
:10770000892004F02ABF00001FB50C46134610B9AB
:107710000E2004B010BD09B90720FAE702788A2AC2
:10772000FAD101220392002BF2D01A68002AEFD07E
:10773000054A009203AA05F04DFA0028E9D1039BFF
:10774000A34218BF0920E4E7D990020013460A4675
:1077500001468A2004F001BF13460A4601468B20E9
:1077600004F0FBBEF0B585B00C461F460A9E0546E8
:1077700010B90E2005B0F0BD09B90720FAE703786B
:107780008C2BFAD101230393002AF2D01368002B2B
:10779000EFD0002FEDD03B68002BEAD0002EE8D0D0
:1077A0003368002BE5D0144B0093134603AA05F071
:1077B00011FA0028DED1114B009303AA3B46214663
:1077C000284605F007FA0028D4D10D4B009303AAF0
:1077D00033462146284605F0FDF90028CAD10B9B07
:1077E00003AA2146284604F03AFF0028C2D1039B91
:1077F000A34218BF0920BDE7E98B0200D99002001F
:10780000FF8D020013460A4601468C2004F0A5BEF7
:1078100013460A4601468D2004F09FBE2DE9FF4124
:107820000C469846DDE90A76054618B90E2004B0E4
:10783000BDE8F08109B90720F9E70378862BFAD172
:1078400001230393002AF1D0B8F1000FEED0002FEE
:10785000ECD0002EEAD0D8F80030002BE6D03B6800
:10786000002BE3D03368002BE0D0134603AA04F0CA
:10787000C8FE0028DBD1114B009303AA43462146E2
:10788000284605F0A7F90028D1D10D4B009303AA93
:107890003B462146284605F09DF90028C7D1094BF3
:1078A000009303AA33462146284605F093F90028A1
:1078B000BDD1039B9C4218BF0920B8E7318C020060
:1078C000D18B0200818C020013460A4601468620B5
:1078D00004F043BE2DE9FF410C469846DDE90A76E7
:1078E000054618B90E2004B0BDE8F08109B907209B
:1078F000F9E703787F2BFAD101230393002AF1D013
:10790000B8F1000FEED0002FECD03B68002BE9D08F
:10791000002EE7D03368002BE4D0134603AA04F00E
:1079200070FE0028DFD1434603AA2146284604F012
:1079300096FE0028D7D10C4B009303AA3B46214664
:10794000284605F047F90028CDD1084B009303AA3B
:1079500033462146284605F03DF90028C3D1039B54
:10796000A34218BF0920BEE7E9890200799102000D
:10797000F0B587B0144603901F460E4629B322B3D4
:107980000023156805937F238DF813302A4605AB35
:107990000DF1130004F056FEA8B905AB2A46314696
:1079A00003A804F0F0FD70B9039B13B1059B23609D
:1079B00009E0074B00932A4605AB3146384605F0EF
:1079C000ECF80028F2D007B0F0BD0E20FBE700BFB6
:1079D0003D91020013B513460C4610B90E2002B0BB
:1079E00010BD09B90720FAE70278772AFAD10122F7
:1079F0000192002BF2D001AA04F031FE0028EED152
:107A0000019BA34218BF0920E9E713460A46014635
:107A1000772004F0A2BD30B5134685B00C46A8B15E
:107A200011B9072005B030BD02786D2AF9D104AA3A
:107A3000012542F8045D0025009505F0CBF80028EB
:107A4000F0D1039B9C4218BF0920EBE70E20E9E729
:107A5000F0B585B0144601901E460F4611B90E20B0
:107A600005B0F0BD002AFAD00023156803936D23FA
:107A70008DF80B302A4603AB0DF10B0004F0E2FD4C
:107A80000028EDD103AB2A46394601A804F07BFD5E
:107A90000028E5D1019B13B1039B2360E0E7002E92
:107AA000DDD003AB2A463946304601F032F80028D3
:107AB000F2D0D5E730B5134685B00C46A8B111B960
:107AC000072005B030BD02786C2AF9D104AA01253F
:107AD00042F8045D064D009505F07CF80028F0D1D1
:107AE000039BA34218BF0920EBE70E20E9E700BF84
:107AF000E98B020013460A4601466C2004F02DBDB6
:107B000030B5134685B00C46A8B111B9072005B0B1
:107B100030BD0278702AF9D104AA012542F8045D2B
:107B2000064D009505F056F80028F0D1039BA342BE
:107B300018BF0920EBE70E20E9E700BF9D95020082
:107B400013460A460146702004F007BD30B51346BF
:107B500085B00C46A8B111B9072005B030BD027838
:107B6000712AF9D104AA012542F8045D064D009559
:107B700005F030F80028F0D1039B9C4218BF092083
:107B8000EBE70E20E9E700BF9D950200F0B587B056
:107B9000144603901F460E4629B322B300231568EE
:107BA000059371238DF813302A4605AB0DF11300B0
:107BB00004F048FDA8B905AB2A46314603A804F0F5
:107BC000E2FC70B9039B13B1059B236009E0074BEE
:107BD00000932A4605AB3146384604F0DEFF002804
:107BE000F2D007B0F0BD0E20FBE700BF4D950200BC
:107BF0002DE9FF470D4616469846074620B90E2444
:107C0000204604B0BDE8F08709B90724F8E70278F8
:107C10006E2AFAD101220392002EF0D03268002A97
:107C2000EDD01268002AEAD003AA04F018FD044639
:107C30000028E5D10DF10B0303AA2946384604F0CC
:107C40000EFD04460028DBD19DF80B30012B19D125
:107C5000DFF838A0D6F80090064698F80030B34216
:107C600004D8039BAB4218BF0924C9E7CDF800A094
:107C700009EB860303AA2946384604F0ABFF18B97E
:107C80000136EAE73060ECE70446B9E7E98B020029
:107C900013460A4601466E2004F05FBC2DE9F04F02
:107CA00085B00D4690461F46DDF83890064620B94F
:107CB0000E24204605B0BDE8F08F09B90724F8E787
:107CC00003786F2BFAD101230393002AF0D01368B5
:107CD000002BEDD01B68002BEAD0002FE8D03B68CA
:107CE000002BE5D01B68002BE2D04B4603AA04F022
:107CF000B6FC04460028DCD10DF10B0303AA29468B
:107D0000304604F0ACFC04460028D2D19DF80B307C
:107D1000012B33D1DFF88CB0D8F800A0804699F859
:107D2000003043451BD80DF10B0303AA294630460A
:107D300004F095FC04460028BBD19DF80B30012BC4
:107D40002BD1DFF864A0D7F80080074699F80030FF
:107D5000BB4216D8039BAB4218BF0924A9E7CDF854
:107D600000B00AEB880303AA2946304604F032FF2C
:107D7000044600289DD108F10108D0E7C8F80000AA
:107D8000D1E7CDF800A008EB870303AA29463046C7
:107D900004F020FF18B90137D8E73860DAE7044665
:107DA00087E700BF59880200D18B020013460A46BC
:107DB00001466F2004F0D1BBF0B50D4685B01F46DB
:107DC000064640B311B9072005B0F0BD0378902BEB
:107DD000F9D104AC012344F8043D1346224604F0D3
:107DE00010FC0028F0D10D4B009322463B4629465B
:107DF000304604F0EFFE0028E6D100900A9B2246B0
:107E00002946304604F0E6FE0028DDD1039B9D4262
:107E100018BF0920D8E70E20D6E700BF239702003D
:107E2000F0B587B0144603901F460E4629B322B31F
:107E300000231568059390238DF813302A4605AB6F
:107E40000DF1130004F0FEFBA8B905AB2A4631463C
:107E500003A804F098FB70B9039B13B1059B236042
:107E600009E0074B00932A4605AB3146384604F03B
:107E700094FE0028F2D007B0F0BD0E20FBE700BF53
:107E80006D9702007FB50C461D46064610B90E20C0
:107E900004B070BD09B90720FAE703788F2BFAD137
:107EA00001230393002AF2D0002DF0D02B68002B81
:107EB000EDD0134603AA04F0A4FB0028E8D1074B39
:107EC000009303AA2B462146304604F083FE002887
:107ED000DED1039BA34218BF0920D9E7D797020040
:107EE00013460A4601468F2004F037BBF7B5154606
:107EF0001E46044620B31AB313B303881D2B21D1A9
:107F00003768ADF802300022019201AB3A462946AB
:107F10000DF1020004F064FB80B901AB3A4629463A
:107F2000201D04F05DFB48B901AB3A46294604F137
:107F3000080000F0A1FF08B9019B336003B0F0BD59
:107F40000E20FBE70720F9E7F7B515461E46044665
:107F500020B31AB313B30388172B21D13768ADF8B8
:107F600002300022019201AB3A4629460DF102008F
:107F700004F036FB80B901AB3A462946201D04F0D7
:107F80002FFB48B901AB3A46294604F1080004F03A
:107F900059FB08B9019B336003B0F0BD0E20FBE72D
:107FA0000720F9E72DE9FF411646984605460028C7
:107FB00045D0002A43D0002B41D00388192B40D153
:107FC000D8F80070ADF806300022029202AB3A46B3
:107FD00031460DF1060004F003FB0446C0B902ABC4
:107FE0003A463146281D04F0FBFA044680B902AB3C
:107FF0003A46314605F1080000F082FF044638B9E0
:1080000003A9A88804F052FE30B1029BC8F80030E2
:10801000204604B0BDE8F081314603980A4E3A4646
:108020004FF4967702AB07FB006001F087F820B9A8
:10803000A88804F025FE0028E7D00446E8E70E24CF
:10804000E6E70724E4E700BF0C300220F7B5154649
:108050001E46044620B31AB313B30388122B21D152
:108060003768ADF802300022019201AB3A4629464A
:108070000DF1020004F0B4FA80B901AB3A4629468A
:10808000201D04F0ADFA48B901AB3A46294604F187
:10809000080000F0FBFF08B9019B336003B0F0BD9E
:1080A0000E20FBE70720F9E7F7B515461E46044604
:1080B00020B31AB313B303881F2B21D13768ADF84F
:1080C00002300022019201AB3A4629460DF102002E
:1080D00004F086FA80B901AB3A462946201D04F027
:1080E0007FFA48B901AB3A46294604F1080000F08E
:1080F000DBFF08B9019B336003B0F0BD0E20FBE746
:108100000720F9E7F7B515461E46044620B31AB313
:1081100013B303881A2B21D13768ADF8023000223F
:10812000019201AB3A4629460DF1020004F058FADB
:1081300080B901AB3A462946201D04F051FA48B9EE
:1081400001AB3A46294604F1080000F029FF08B9BE
:10815000019B336003B0F0BD0E20FBE70720F9E779
:10816000F7B515461E46044620B31AB313B3038869
:10817000102B21D13768ADF802300022019201ABFB
:108180003A4629460DF1020004F02AFA80B901AB03
:108190003A462946201D04F023FA48B901AB3A4675
:1081A000294604F1080000F03BFF08B9019B336049
:1081B00003B0F0BD0E20FBE70720F9E72DE9FF41F2
:1081C00016461F460546002838D0002A36D0002B18
:1081D00034D00388112B33D1D7F80080ADF80630A6
:1081E0000022029202AB424631460DF1060004F035
:1081F000F7F90446B8B902AB42463146281D04F0EF
:10820000EFF9044678B902AB4246314605F1080061
:1082100000F058FF044630B903A9A88804F046FDD1
:1082200028B1029B3B60204604B0BDE8F081A888DD
:1082300004F026FD0028F4D00446F4E70E24F2E70B
:108240000724F0E7F7B515461E46044620B31AB3D7
:1082500013B30388162B21D13768ADF80230002202
:10826000019201AB3A4629460DF1020004F0B8F93B
:1082700080B901AB3A462946201D04F0B1F948B94E
:1082800001AB3A46294604F1080004F0DBF908B9CD
:10829000019B336003B0F0BD0E20FBE70720F9E738
:1082A000F0B5144685B01F460546002832D08AB383
:1082B00083B30388182B2FD13E68ADF80A30002213
:1082C000039203AB324621460DF10A0004F088F90F
:1082D000F0B92B7BC3F300038DF80930324603ABB2
:1082E0002146281D04F07CF990B90C4B00933246CE
:1082F00003AB2146A86804F050FC48B903AB3246F2
:1083000021460DF1090004F09DF908B9039B3B607B
:1083100005B0F0BD0E20FBE70720F9E7B58B0200A2
:108320002DE9FF41144698460546B0B3AAB3A3B35E
:108330000388152B33D1D8F80060ADF80A3000223D
:1083400003AF03923B46324621460DF10A0004F08A
:1083500047F9F8B9AB7BC3F300038DF80930324617
:108360003B462146281D04F03BF998B90097334657
:108370002246062105F1080004F0AFFA50B93B4649
:10838000324621460DF1090004F05CF910B9039B57
:10839000C8F8003004B0BDE8F0810E20FAE70720ED
:1083A000F8E7F7B515461E46044620B31AB313B3D3
:1083B00003881C2B21D13768ADF8023000220192CE
:1083C00001AB3A4629460DF1020004F009F980B9E3
:1083D00001AB3A462946201D04F002F948B901AB29
:1083E0003A46294604F1080004F02CF908B9019B2B
:1083F000336003B0F0BD0E20FBE70720F9E7F7B5C7
:1084000015461F46044660B35AB353B30388202B66
:1084100029D13E68ADF802300022019201AB32460C
:1084200029460DF1020004F0DBF8C0B901AB324679
:108430002946201D04F0D4F888B901AB32462946FC
:1084400004F1090000F065FB48B901AB324629464A
:1084500004F1080004F0F6F808B9019B3B6003B092
:10846000F0BD0E20FBE70720F9E7F7B515461E46DD
:10847000044620B31AB313B30388142B21D13768F1
:10848000ADF802300022019201AB3A4629460DF1C7
:10849000020004F0A5F880B901AB3A462946201D38
:1084A00004F09EF848B901AB3A46294604F10800A9
:1084B00000F084FD08B9019B336003B0F0BD0E20CD
:1084C000FBE70720F9E7F7B515461E46044620B33B
:1084D0001AB313B30388132B21D13768ADF80230D8
:1084E0000022019201AB3A4629460DF1020004F048
:1084F00077F880B901AB3A462946201D04F070F8A0
:1085000048B901AB3A46294604F1080000F0B0FD35
:1085100008B9019B336003B0F0BD0E20FBE70720D4
:10852000F9E7F7B515461E46044620B31AB313B350
:1085300003881E2B21D13768ADF80230002201924A
:1085400001AB3A4629460DF1020004F049F880B922
:1085500001AB3A462946201D04F042F848B901AB68
:108560003A46294604F1080000F024FE08B9019BB0
:10857000336003B0F0BD0E20FBE70720F9E7F7B545
:1085800015461E46044620B31AB313B303881B2BAB
:1085900021D13768ADF802300022019201AB3A4692
:1085A00029460DF1020004F01BF880B901AB3A46F0
:1085B0002946201D04F014F848B901AB3A46294673
:1085C00004F1080004F03EF808B9019B336003B0E1
:1085D000F0BD0E20FBE70720F9E7F7B515461F466B
:1085E0000446A0B39AB393B30388222B31D13E68DB
:1085F000ADF802300022019201AB324629460DF15E
:10860000020003F0EDFF00BB01AB32462946201DFE
:1086100003F0E6FFC8B901AB3246294604F1080071
:1086200004F010F888B901AB3246294604F109007C
:1086300004F008F848B901AB3246294604F10A00B3
:1086400004F000F808B9019B3B6003B0F0BD0E20B8
:10865000FBE70720F9E7F7B515461E46044620B3A9
:108660001AB313B30388212B21D13768ADF8023038
:108670000022019201AB3A4629460DF1020003F0B7
:10868000AFFF80B901AB3A462946201D03F0A8FF91
:1086900048B901AB3A46294604F1080001F084F8D4
:1086A00008B9019B336003B0F0BD0E20FBE7072043
:1086B000F9E7F7B515461E46044620B31AB313B3BF
:1086C0000388232B21D13768ADF8023000220192B4
:1086D00001AB3A4629460DF1020003F081FF80B953
:1086E00001AB3A462946201D03F07AFF48B901AB99
:1086F0003A46294604F1080000F0EEFF08B9019B54
:10870000336003B0F0BD0E20FBE70720F9E7F7B5B3
:1087100015461E46044620B31AB313B30388242B10
:1087200021D13768ADF802300022019201AB3A4600
:1087300029460DF1020003F053FF80B901AB3A4620
:108740002946201D03F04CFF48B901AB3A462946A3
:1087500004F1080000F0C0FF08B9019B336003B0CA
:10876000F0BD0E20FBE70720F9E710B4019C18B11B
:10877000A4465DF8044B60470E205DF8044B70473B
:1087800010B4019C1BB1A4465DF8044B60470E2059
:108790005DF8044B70470000F7B5044617461D46C8
:1087A0000E4699B193B188B1DFF828C0CDF800C06A
:1087B000FFF7DBFF40B9064B00933A462B463146A4
:1087C00004F11200FFF7D1FF03B0F0BD0E20FBE76C
:1087D000D38D0200558B0200F7B50F4614461D4697
:1087E000064698B192B18BB1DFF828C0CDF800C031
:1087F000FFF7C6FF40B9064B0093224605F112036E
:1088000039463046FFF7BCFF03B0F0BD0E20FBE752
:10881000498E0200318C0200F7B5044617461D460A
:108820000E4699B193B188B1DFF828C0CDF800C0E9
:10883000FFF79BFF40B9064B00933A462B46314663
:1088400004F11000FFF791FF03B0F0BD0E20FBE72D
:10885000138B0200F78A0200F7B50F4614461D4637
:10886000064698B192B18BB1DFF828C0CDF800C0B0
:10887000FFF786FF40B9064B0093224605F110032F
:1088800039463046FFF77CFF03B0F0BD0E20FBE712
:10889000E98B0200D18B020013B571B16BB160B1ED
:1088A0000078C0F3000400F00E00044302A800F8B2
:1088B000014D03F0C7FE02B010BD0E20FBE713B55B
:1088C00071B16BB160B1007800F0F004C0F3030047
:1088D000044302A800F8014D03F0B4FE02B010BD3D
:1088E0000E20FBE7F7B5044617461D460E4689B134
:1088F00083B178B1DFF824C0CDF800C0FFF735FFB1
:1089000048B92B463A463146601C03B0BDE8F040FA
:1089100003F098BE0E2003B0F0BD00BFBF88020078
:108920002DE9FF41044690461E460F4671B36BB3D6
:1089300060B30078C0F3000500F0FE00054304A812
:1089400000F8015D03F07EFEE8B933464246394641
:10895000601C03F077FEB0B9334642463946A01C8E
:1089600003F070FE78B90A4D009533464246394609
:10897000E01CFFF7FAFE30B900953346424639460F
:10898000201DFFF7F2FE04B0BDE8F0810E20FAE7EB
:108990009589020013B571B16BB160B10078C0F375
:1089A000000400F00E00044302A800F8014D03F09B
:1089B00049FE02B010BD0E20FBE737B51C4688B15A
:1089C00082B17BB10DF1070303F049FE40B99DF878
:1089D0000720237862F30303120962F3071323705D
:1089E00003B030BD0E20FBE72DE9FF410F461546D1
:1089F0001C460646002842D0002A40D0002B3ED01C
:108A00000DF10F0303F02BFEB0BB631C2A46394661
:108A1000304603F024FE78BBA31C2A463946304674
:108A200003F01DFE40BBDFF85C80CDF80080E31C46
:108A30002A4639463046FFF7A3FEE8B9CDF8008054
:108A4000231D2A4639463046FFF79AFEA0B99DF805
:108A50000F202378510862F3000361F3410391086A
:108A600061F38203D10861F3C303110961F30613B3
:108A7000D20962F3C713237004B0BDE8F0810E2061
:108A8000FAE700BF898A020037B51C46B8B1B2B117
:108A9000ABB10DF1070303F0E2FD70B99DF80720BB
:108AA0002378510862F3000361F34103910861F3F5
:108AB0008203D20862F3C303237003B030BD0E20DB
:108AC000FBE737B51C46A0B19AB193B10DF107038E
:108AD00003F0C5FD58B99DF807202378510862F3CB
