:020000022000DC
:1070000000000220757302005D730200019E020001
:1070100061730200637302006573020000000000E8
:1070200000000000000000000000000035AA02007F
:10703000697302000000000055AA02006D7302008F
:107040001DCD02006F7302002DCD02006F73020090
:107050006F7302006F73020059CA02006F7302005F
:107060006F7302006F7302006F7302006F73020090
:107070006F7302006F7302006F7302006F73020080
:107080006F73020059AB02006F7302006F7302004E
:107090006F7302006F7302008D0C03006F730200A8
:1070A0006F7302006F7302006F7302006F73020050
:1070B0006F7302006F730200000000000000000008
:1070C0006F7302006F7302006F7302006F73020030
:1070D0006F7302006F7302006F730200F9E5020024
:1070E0006F730200000000000000000000000000BC
:1070F000000000006F730200000000006F730200C8
:10710000000000000000000000000000000000007F
:10711000000000000000000000000000000000006F
:10712000000000000000000000000000000000005F
:10713000000000000000000000000000000000004F
:10714000000000000000000000000000000000003F
:10715000000000000000000000000000000000002F
:10716000000000000000000000000000000000001F
:10717000000000000000000000000000000000000F
:1071800000000000000000000000000000000000FF
:1071900000000000000000000000000000000000EF
:1071A00000000000000000000000000000000000DF
:1071B00000000000000000000000000000000000CF
:1071C00000000000000000000000000000000000BF
:1071D00000000000000000000000000000000000AF
:1071E000000000000000000000000000000000009F
:1071F000000000000000000000000000000000008F
:10720000354936480A1A02D0072291438D4634493F
:1072100034480A1A06D00722914381F309880222D2
:1072200082F3148830483149314A00F044F831483B
:107230003149324A00F03FF831483249324A00F0D1
:107240003AF832483249334A00F035F83248334987
:10725000334A00F030F833483349344A00F02BF811
:1072600033483449344A00F026F83448344900227F
:1072700000F02CF833483449002200F027F8334856
:107280003349091A082902DB002202604160314AB1
:1072900090471F481F49884205D00268043003B454
:1072A000904703BCF7E700208646EC46002000210B
:1072B000294A9047FEE7884207D0521A05D0037842
:1072C00001300B700131013AF9D17047884202D088
:1072D00002700130FAE770470000022000F8012038
:1072E0000000022000000220942C0300E82A002065
:1072F000542B0020D0730200D073020068160300E4
:10730000942C0300E82A0020E82A002094170300A8
:1073100094170300941703009417030094170300B5
:10732000941703009417030094170300942C030090
:10733000002D0300542B0020542B0020542B002040
:10734000F0600020F0600020F0600020F06000207D
:10735000F06800209D73020011F40200FEE7FEE7D2
:10736000FEE7FEE7FEE7FEE7FEE7FEE7FEE7FEE7F5
:1073700000F002B8FFF7FCBF0F484FF00701884349
:1073800085460E4880470E48016841F4700101604F
:10739000BFF34F8FBFF36F8FFFF732BF09480A4922
:1073A0000A4A884207D0521A05D0037801300B7080
:1073B0000131013AF9D1704700000220B5A702005F
:1073C00088ED00E094170300E82A0020E82A002056
:1073D000F0B595B01D46164608460C4603F06AF90E
:1073E0001A9B0D93CDE9086500252B46082205A9B7
:1073F00020460A958DF82C500C9503F077F9079BE1
:107400000293069B03939DF814308DF8115003F0FE
:107410000302012A1DD1BDF81420059DC3F3C20348
:10742000C2F383168DF81030B20008230EA920464F
:1074300003F05CF9C5F3952508AB0093324602AB27
:107440000EA9284600F0C8FB204603F037F915B016
:10745000F0BD022AF8D1BDF81650C3F3C203C5F33C
:1074600089158DF810300827082D2E4628BF0826CC
:107470003B4632460EA9204603F038F9AD1B08AB57
:1074800002AA31460EA8374400F00AFC002DEBD1C9
:10749000DAE70000014B01221A707047952B00209B
:1074A0007047000070B50E4D06460FCD88B06C4693
:1074B0000FC495E80F00002E84E80F00094A0A481F
:1074C0004FF0060308BF00226946009305F080F8DC
:1074D00008B100F0B7FD054B1E7008B070BD00BFCD
:1074E0009417030095740200E82A0020542B002012
:1074F00007B5044B0093044A4023FFF769FF03B02C
:107500005DF804FB0D750200552B002038B50D48C1
:107510000D4C0E4D002323700378EB5CD2B263B1A7
:10752000043006F0CDF808B100F08CFD084B1A7855
:1075300012B12378002BFBD038BD0C3005F050FE83
:10754000F1E700BFE82A0020952B002044550020D9
:10755000542B002008B50848084A0378D35C3BB197
:10756000043006F01DF8BDE808400020FFF79ABF80
:107570000C3005F0CDFDF6E7E82A00204455002048
:107580000120FFF78FBF000008B5FFF7F9FF04489F
:10759000042100F08BFA034B01225A7108BD00BF91
:1075A00084170300FC2A0020037813F0040216D08D
:1075B00003F00303012B03D0022B09D001207047F5
:1075C0000A6800880232C0F3831002440A60F5E7BB
:1075D0000B684288023303EB92130B60EEE7104610
:1075E000704700002DE9F04FDFF81CA187B00F466F
:1075F00000230446861C0DF1070015468DF8073060
:1076000002F0C4FBDAF804203A60DAF8083003F537
:1076100080739B1A0AF21C470AF583690AF2144820
:10762000B3421AD30020002D69D004F00F039B0150
:1076300043F0050363F30F00DAF80430DAB20332E3
:1076400033444AF822009DF80700CAF8043002F0DB
:10765000C1FB012007B0BDE8F08F0121384602F0E0
:107660004AFD484602F06DFD404602F06AFDDAF838
:1076700008000290C0B203300AEB800002A9FFF7B5
:1076800093FF029B30BBDAB20AEB8202D16803910E
:107690009A1C0133DBB20AEB83030292D3F80CB0DD
:1076A00001F00303012B22D0022B15D08346404664
:1076B00002F04AFD10B1029BCAF80830594638461C
:1076C00002F019FDDAF80830DAF8042003F58073C7
:1076D0009B1AA5E7D8B2CEE7BDF80E30C3F38913E5
:1076E00003334FEA1B4B02EB93030293DFE7BDF832
:1076F0000C30C3F383134FEA1B4B1344F5E7A40587
:1077000044F0060098E700BF682C0020064B0748AD
:1077100010B500221A7002F086FF044610B9044822
:1077200002F0EEFF204610BD682C0020D0160300AA
:10773000E817030030B50A4C71B10A4A0A49121B16
:10774000D20800239A4201D1002030BD31F82350E5
:10775000854202D00133F5E7034654F83300F4E7DD
:10776000E416030084170300E82A0020094B0139BE
:1077700003EBC000032909D8DFE801F00A02040680
:1077800004207047007970474079704700207047A7
:1077900002207047E416030070470000034BD3E952
:1077A0000130C31A58425841704700BF682C00206E
:1077B0002DE9F04186B0FFF7F1FF0546002840F0C3
:1077C000ED80774CC4F81804BFF34F8FA368029381
:1077D000DBB2033304EB830002A9FFF7E5FE029B53
:1077E00018B1D4F81824002A5AD0DAB2991C0133FF
:1077F00004EB8202DBB204EB8303D268DB68049300
:1078000002F00303022B0392029154D1BDF80E3013
:107810006448C3F38917502F3E4628BF502606F10F
:10782000080166F38F13C1F30901ADF80E3002F0C1
:1078300012FF0546002800F09C8002F03BFF002369
:10784000082203A9284602F047FF0299CB43DBB286
:107850000133C9B20331B6EB830F4FEA830204EB65
:10786000810125D95FFA82F80823A6EB080628468D
:1078700002F032FFF6B208F108034B4903F0FC03B3
:107880003246284602F028FF029B033703EB970796
:107890000297D4F81834002B43D1D4F8106453E085
:1078A00062689A4294D8A260284606B0BDE8F0818A
:1078B00008233246E5E7012B5BD1BDF80C3039488F
:1078C000C3F38311062928BF062161F3891302310E
:1078D00001F00F018900ADF80C3002F0BCFE054646
:1078E000002846D002F0E6FE0023082203A928461D
:1078F00002F0F2FE0026BDF80C20C2F38312B300A2
:10790000964203F10803C4D202994A1CC9B203315A
:10791000029204EB81010422284602F0DDFE0136CA
:10792000E9E7284602F0CAFEFFF738FF80F00100C1
:10793000C5B2B9E7F3685B7923B1336829461B68A0
:1079400030469847F3681E68002EF3D1284602F0AF
:10795000B5FE0DF107008DF8076002F017FAD4F8B4
:1079600018340BB9029BA3609DF8070002F032FAAD
:10797000DAE7D4F8104454B90C4B0D480D49C01A3D
:10798000C008000440F0020000F05EF8CCE7236875
:1079900020469B689847E3681C68ECE7002583E76E
:1079A000682C0020D0160300742C0020E41603007D
:1079B00014170300D11703002DE9F34704460E46C0
:1079C000924601A9012218469946FFF70BFE1C4F6B
:1079D00010B3019D4FF00008AA1CC84508EB020136
:1079E00025D11848002102F057FB80F31000000455
:1079F00040EA1440E4006B1C04F03804DBB2EDB242
:107A000044F0010407EB8303033544EA881444EA95
:107A10008624D86047F825403B781BB1FFF7C8FEA5
:107A20000028FBD1FFF7B8FE02B0BDE8F087C9B26D
:107A300007EB81015AF82830CB6008F10108CCE748
:107A4000682C00208430002000231A46FFF7B4BFC2
:107A500007B50123019201AAFFF7AEFF03B05DF85D
:107A600004FB07B5CDE9002302236A46FFF7A4FF14
:107A700003B05DF804FB1FB5CDE90123069B03931A
:107A800001AA0323FFF798FF05B05DF804FB1FB5BB
:107A9000CDE90023069B0293079B03936A460423C8
:107AA000FFF78AFF05B05DF804FB000030B50F4C0E
:107AB000D4F8102403460020114631B9D968087162
:107AC0004AB9C4F810340A6030BDC9680D798542DE
:107AD00006D00968F1E7D26814680C601360F3E718
:107AE00001300A28E8D14FF0FF30EDE7682C002084
:107AF00038B5084B0125D3F810441D7004B938BDC2
:107B0000E3685D71236820465B689847E3681C68FA
:107B1000F4E700BF682C002030B5C38885B0044668
:107B20000D4633B1144A00921449154A284602F012
:107B30006EFB217A05291DD0637A4BB1A088FFF72F
:107B400015FE104B104953F82020284602F05FFB29
:107B5000227A0E4BA08853F8222003920021FFF7CF
:107B6000E9FD039A0A490346284605B0BDE83040BE
:107B700002F04DBB05B030BD14180300FC17030024
:107B8000F41703008018030098270300A4180300CB
:107B90001918030007B503460846197A052911D0BC
:107BA0005B7A2BB1094A0A49019002F030FB019837
:107BB0000849019002F02BFB019803B05DF804EB3B
:107BC00002F01ABB002AF8D0F2E700BF1418030035
:107BD00098270300111803002DE9F04385B01F46D4
:107BE0000C9D002395F80C902B7306460C4690468E
:107BF00029463846FFF790FFB8F1060F09D8DFE8AD
:107C000008F00412181F283340003146284602F0BD
:107C1000FEFA002229463846FFF7BCFF85F80C9093
:107C200005B0BDE8F08322683146284602F0EFFA3D
:107C3000EFE7D4E900233146284602F0E8FAE8E706
:107C4000A36800933146D4E90023284602F0DFFA06
:107C5000DFE7E3680193A36800933146D4E900238A
:107C6000284602F0D4FAD4E723690293E36801932B
:107C7000A36800933146D4E90023284602F0C7FAEE
:107C8000C7E76369039323690293E3680193A368D9
:107C900000933146D4E90023284602F0B8FAB8E749
:107CA00008292DE9F74F80460E4617461C463DD859
:107CB00000251B7B2573214610460193FFF72CFFFF
:107CC000DFF88CA0DFF88CB0AE4232D918F805206E
:107CD0005946204602F09BFA0135082DF4D11B4984
:107CE000DFF874A0DFF874B0204602F090FA4FF08D
:107CF00000094E4524D918F809507E2D1ED8284673
:107D000009F0F6F8002814BF2A462E2259462046CC
:107D100002F07DFA09F10109B9F1080FE9D1012258
:107D200021463846FFF736FF019B237303B0BDE8B9
:107D3000F08F5146204602F06AFACDE72E22E5E7A1
:107D40005146204602F063FAE4E700BF2D18030015
:107D500029180300231803002B1803002F18030011
:107D6000C30710B507D4F023054A4008145C23402C
:107D70001943115410BD0901C9B20F23F4E700BF24
:107D80005031002030B5094B1C78094B196800238D
:107D90009C4202DC0022104630BD11F8335085426F
:107DA00001EBC302F7D00133F2E700BF203100201E
:107DB0007031002013B504460191FFF7E3FF38B19D
:107DC00043682BB10199204602B0BDE81040184726
:107DD00002B010BD034B044819680022490800F0A6
:107DE000B5B900BF243100202831002010B5C0B241
:107DF000FFF7C8FF0446007804F020FE63785A1E9F
:107E000053425341834208D1044BD3E90023134327
:107E100003D1BDE81040FFF7DDBF10BD48310020A1
:107E200037B54308374AD35CC2074CBF1B0903F080
:107E30000F0304460D46042B25D8DFE803F0032684
:107E40002F3C4000F9B10121FFF78AFF00230DF11B
:107E500007008DF8073001F099FF0120A4F12003FD
:107E6000C4F12001284A20FA01F100FA03F30B4380
:107E7000A040D2E9004120430B43C2E900039DF832
:107E8000070001F0A7FF03B030BD002918BF022191
:107E9000204603B0BDE83040FFF762BF49B103217F
:107EA000FFF75EFF0121204603B0BDE83040FFF739
:107EB00081BF0121ECE70029E5D10421E8E709B100
:107EC0000321E5E7FFF74CFF29462046FFF772FF45
:107ED0000DF107008DF8075001F058FF0120A4F1C3
:107EE0002003C4F12001084A20FA01F100FA03F34B
:107EF0000B43A040D2E9004124EA000021EA030339
:107F0000BBE700BF50310020483100202DE9F0418F
:107F1000124E134F00243378A34208DC114BD3E9EF
:107F20000023134318D0BDE8F041FFF753BF3D686D
:107F300005EBC40815F8340004F080FD98F8013012
:107F40005A1E53425341181A4142414115F8340018
:107F5000FFF766FF0134DEE7BDE8F0812031002045
:107F60007031002048310020092AF7B505460C463B
:107F700016463ED904F08AFCE8B11F4B1F481D602D
:107F80001F4B204F1C70204B002120221E6009F047
:107F90000AF81E4B00200021C3E90001013CE4B2B5
:107FA0000326FF2C0DD11A4A1A48002103B0BDE860
:107FB000F04000F09DB804F023FC0028DDD003B0B1
:107FC000F0BD9DF8063015F834008DF8046005EB1F
:107FD000C40223F007038DF8063001A993788DF8C9
:107FE00005303A4604F05CFC013CE4B20028D8D0ED
:107FF000E5E70720E3E700BF7031002050310020A3
:1080000020310020ED7D0200243100204831002085
:108010000D7F0200C418030070B5084D084E0024FF
:108020002B789C4201D3002070BD3368012113F8E6
:10803000340004F0B5FC0134F2E700BF2031002029
:10804000703100201FB50021039001AA44F2010005
:10805000CDE9011100F004F805B05DF804FB000063
:1080600038B572B6FFF744FDFFF7A2FB0028FBD13D
:10807000104B114C114D1249E41AE408240444F049
:108080000100FFF7E1FCD5F8F030DB0700D500BEBA
:108090000C4944F00200FFF7D7FCBFF34F8FEA68AA
:1080A000094B02F4E0621343EB60BFF34F8F00BF54
:1080B000FDE700BFE41603001417030000ED00E025
:1080C000C8180300D41803000400FA0510B503F023
:1080D00095FF037B43B1437B83F001030373BDE84A
:1080E000104083680068184710BD002070470000EA
:1080F00073B504680E46154602B3237B03BB616863
:10810000F1B91022204608F04EFF002E0CBF0123CB
:10811000002363730B4BA56018BF0122009308BFB7
:108120000022094823464FF47A7103F023FE002809
:10813000606014BF00200E2002B070BD0720FBE776
:108140000820F9E7CD8002002B180300F0B5456840
:1081500087B00446002D45D0067B2EBB0260EFF3AE
:1081600005831BB30A46009605AB092128460596F0
:1081700003F01AFE012825D103F0E0F9009602462B
:1081800005AB0621284603F00FFE01281AD1059BF6
:1081900043B1154B4FF080525A6040BFBFF34F8F31
:1081A000BFF36F8F0123237300200CE002270A46E0
:1081B000009704212846039303F0F6FD0128039B52
:1081C000064602D0042007B0F0BD039303F0B0F9D7
:1081D000039B009702463146284603F0E5FD01283F
:1081E000E0D0EFE70820EEE700ED00E01FB5044621
:1081F000406830B3EFF30583D3B10022009203ABA4
:108200000821039203F0D0FD012801D004200DE0E5
:10821000039B43B10C4B4FF080525A6040BFBFF3F9
:108220004F8FBFF36F8F00232373184604B010BD28
:108230000222009203211A4603F0B6FD0128F2D073
:10824000E4E70820F2E700BF00ED00E043681B68A8
:1082500018470000024B5B6803B11847704700BF26
:1082600078310020020600F00F034CBF024803489B
:10827000DB001844704700BF84310020CC3100205F
:1082800008B5FFF7EFFF016009B14B68196841605D
:1082900008BD0000024B0146D3E90002104700BFB1
:1082A000CC31002038B5831EDBB2062B98BF1A4AAA
:1082B0001A4D98BFD25C2B78A3F10203DBB288BFC2
:1082C0000022062B9ABF1449CB5C0023934204463C
:1082D00003D0B2B1124804F021F8022C14D0A4F15A
:1082E0000800424242412B78022B0FD0A3F1080133
:1082F0004B424B41934202D052B105F0D7FE2C7055
:1083000038BD04F045F8E8E70122ECE70123F1E786
:1083100005F0C2FEF3E700BFEA1803004433002073
:10832000042B00200378052B73B504460BD12F4A8C
:10833000D2F88434D2F88024D2B222B92C4ADBB2EB
:10834000052B08BF144623782BBB2A4B1D68DDB9CB
:108350008DF80450284D01A801F018FD2B6813B9C1
:10836000264B62881A800121234801F0C4FE9DF843
:10837000040001F02FFD224B1B6813B101212046A0
:1083800098472B6802B070BD2B6860889B6898473F
:108390002B685D68DBE71B4801A901F0ECFD054691
:1083A0000028EFD02368036000260DF103008DF84C
:1083B000036001F0EBFC114B0F481B88026801338E
:1083C0009B1AEB80314601F067FEA8809DF8030000
:1083D00001F000FD01A90B4801F0F7FD084B1B68F7
:1083E0000146002BCED020469847CBE700700240D4
:1083F00004190300383300204033002014320020D9
:108400007831002020330020FFF78CBF012805D0F1
:10841000022805D030B90448FFF784BF0348FBE7C2
:108420000348F9E7704700BFFC180300F818030081
:10843000001903000148FFF775BF00BF08190300CA
:108440002DE9F04F87B000260546884691461F4625
:1084500002966B6800225C682946012302A8A047A7
:10846000044638B98DF8060004908246564503D874
:10847000052028E00136ECE76B680DF10602D3F821
:1084800004B02946012304A8D8476B680DF1070200
:10849000D3F804B02946012304A8D8479DF8073033
:1084A00043459DF8063013D14C450FD1109A136007
:1084B0003B7087F801806A68023B54682946BA1C01
:1084C00004A8A047002007B0BDE8F08F0134E4B253
:1084D0006A68023BD2F804B02946002204A8D847B3
:1084E0009DF806309A44C1E72DE9F7430823054675
:1084F0002D492E484FF4847201F02AFD002851D1F5
:108500002B4805F0E9FD0446002847D1294B187097
:10851000294B1860294B014618604822284808F06A
:1085200042FD28484822214608F03DFD264B8DB9E2
:10853000C3E900551D72002003F0BEFF18B1852865
:1085400001D0FFF77FFD214F002697F8089007F133
:10855000090810E095E8070083E80700EBE7A37837
:1085600023443946985CFFF78BFE01356378EAB205
:108570009342F4D80136F4B2A14504D904EB440483
:1085800044440025F2E70B2310488DF8043001A97C
:10859000FFF75CFE044608B105F0D2FC204603B0AC
:1085A000BDE8F0830324F9E71632002020330020D1
:1085B000098402004433002030330020343300208B
:1085C00084310020CC310020783100203C19030098
:1085D00010B505F02FFD10B90823184610BD05F0A1
:1085E00031FD04460028F7D1044803F099FF034603
:1085F0000028F2D0FFF726FD2346EEE7F41803002B
:1086000005F0A8BC06F086B84FF08043D3F83824B4
:10861000920702D50348FFF785BED3F83824D10767
:10862000F4D470470D19030007B5822301A88DF813
:108630000430FFF777FE03B05DF804FB2DE9F74344
:1086400000F1090190F80890054600270E46FBB29C
:108650004B452AD291F801800024E3B298450AD90B
:108660008B780A190134D05CFFF7FCFD0368002BFE
:10867000F3D0112028E001370331E8E7A278234442
:108680002946985CFFF7FCFD01376278FBB29A42FD
:10869000F4D808F101082B7A5FFA88F4A34216D9BE
:1086A00004EB440434440027EFE74FF00008F2E7FE
:1086B00013681A68002AFBD11D6001A90B23284604
:1086C0008DF80430FFF7C2FD03B0BDE8F083014B25
:1086D000EFE700BF30330020024B1878003818BF96
:1086E000012070473C330020030710B5044604D432
:1086F00005F01AFE204606F0DDF82046BDE81040E1
:1087000006F082B806F04EB8014B1868704700BFFB
:1087100030330020F0B50A4B0246186878B1057A6C
:108720000023861DDCB2A54201D80368F5E70133BA
:1087300003EB4307F75D9742F4D101B10C70F0BD34
:10874000303300201146FFF781BD08B500F00F035C
:10875000082B07D8FFF786FD006818B1BDE8084070
:10876000FFF774BD102008BD38B5054B05461C68E1
:1087700004B938BD29462046FFF768FD2368F6E7AF
:108780003033002038B5074B05461C680CB906206D
:1087900038BD29462046FFF759FD0628F8D1236841
:1087A000F3E700BF3033002013B50446019105F014
:1087B000D9FC50B1064B1B78022B06D101992046FB
:1087C00002B0BDE8104005F0DDBC082002B010BDCD
:1087D0004433002013B50446019105F0C3FC50B1A9
:1087E000064B1B78022B06D10199204602B0BDE84A
:1087F000104005F041BD082002B010BD44330020F8
:10880000F8B543689B6805460C46164613B92EB169
:10881000072002E098470628F9D0F8BD2B7AA3423A
:1088200013D9093504EB44042C446778F3B29F4212
:1088300001D80020F1E762789A4208D9A219A378FA
:10884000D05CFFF751FF0136F0E77378FFDE0023BD
:108850001B78FBE74368DB6870B505460C4603B13F
:1088600098472B7AA34213D9093504EB44042C44CE
:1088700000256678EBB29E4200D870BD62789A42BD
:1088800009D96219A378D05C05F08CFF0135F1E7B6
:1088900000235B78FFDE00231B78FBE743681B693E
:1088A00003B118471846704770B5084B1C6804B9E7
:1088B00070BD267A0025E9B28E4201D82368F5E71B
:1088C00000222046FFF79CFF0135F4E730330020FB
:1088D00070B5084B1C6804B970BD267A0025E9B252
:1088E0008E4201D82368F5E72046FFF7B3FF013534
:1088F000F5E700BF3033002038B503780F2B04466E
:1089000010D9A3F1800283F08003052B00D938BD74
:10891000052AFCD8DFE812F067002C00490073003C
:108920007E00E0000F2BF2D801A252F823F000BF26
:10893000378A0200678A0200C78A02008B8A020017
:10894000A98A0200D98A0200EB8A02000F8902007C
:10895000158B0200198B02001D8B02000F8902008B
:108960000F8902000F8902000F890200E38A0200CA
:108970006B48FFF78FFC6A48FFF7F6FE0D20FFF704
:1089800069FCFFF7A5FF00F022FF664B1B6853B997
:10899000654B187A00F0010005F028FB0120BDE8C6
:1089A0003840FFF77FBC0120F4E7FFF791FF05F0A7
:1089B0008FFE0020FFF776FC5C48FFF7D5FE5B4892
:1089C000FFF768FC0E20FFF745FC594B1B78023B74
:1089D000DBB2062B9BD8574AD35C002B97D0BDE85F
:1089E000384003F0D5BC524B1B78062B05D003F062
:1089F000FD03052B8BD10220D1E70820CFE74C4B9C
:108A00001B78032B83D105F0A1FE00283FF47FAF34
:108A10000420C4E7464B1B78032B05D105F096FED6
:108A200010B10420FFF73EFC05F016FB00283FF4D0
:108A30006EAF0620B3E73E4B1B78032B01D0082B0B
:108A400002D13D48FFF758FF0020FFF703FC354BEC
:108A50001D68002D3FF45BAF28462146FFF7F6FB6B
:108A60002B685D68F5E7FFF733FF00F0A7FE0220F3
:108A7000FFF718FC0120FFF7EDFB2046FFF70AFC8B
:108A80002046BDE83840FFF76FBE294B1B78082B06
:108A900006D10220FFF706FC05F012FB0320EAE7EF
:108AA0000520FFF7FFFBF9E70320FFF7D3FB23487F
:108AB000FFF7F0FB2148FFF757FE1D4B1B78062BF5
:108AC00099D107206BE70320FFF7ECFB0220FFF7AB
:108AD000C1FB2046FFF748FE2046BDE83840FFF7BF
:108AE000D9BB0F20FFF7B6FBCAE78078FFF7BAFBC8
:108AF000214643680068984700283FF408AFA078F3
:108B000002073FF404AF03073FF501AFBDE838406B
:108B100005F0FCBB0820E5E70920E3E70A20E1E7D0
:108B20000C19030034330020783100200B190300A6
:108B300044330020EA1803000A190300091903004E
:108B400073B5244E00230193336823B92249234887
:108B500001F04BFA30603468ECB1A58885B1E38848
:108B6000B3F5006F24BF0023E380E388ADF806303F
:108B70005A1C013DE280A58001A8FFF7BDFE07E079
:108B80002046FFF7B9FE1449144801F059FA356040
:108B9000012002B070BD124B18680028F9D00DF109
:108BA00003008DF8034001F0F1F80E4B0C481A88D1
:108BB000B2F5006F28BF1C801A88ADF80620511C42
:108BC0001980012101F0AFFA9DF8030001F002F9CC
:108BD000D2E700BF4833002074310020203300204A
:108BE0004033002014320020C36903B11847704796
:108BF00003680022C3E91E22C3E920221A845A62B4
:108C0000DA6203F134025A677047CA699A4210B5B2
:108C100043600CD38C690460086F18440867D01A4D
:108C20001C44C86100388C6118BF012010BD01F1DF
:108C3000280202608B670020F8E758B90B681A7B9E
:108C4000202A09D1D3F80E209A615A8A9A831A7D74
:108C50009A7770470320704706207047F0B5046884
:108C60000D7A002C00F08780A4F213347C2C00F2E3
:108C700022837C2C00F21F83DFE814F085008F0034
:108C80009D00A900B500C100CD00D9001D031D0342
:108C90001D031D031D031D03EF00FB001D031D032A
:108CA0001D031D031801240132011D031D031D03B3
:108CB000450151017F011D031D031D031D036701B4
:108CC00073017F011D031D031D031D031D031D03F0
:108CD0008B011D031D031D031D039F01AB01B70184
:108CE000C301CF011D031D03DB01E701F301FF01F8
:108CF0000B021D031D031C022802340240021D0347
:108D00001D034C025802640270027C021D031D0305
:108D10001D031D031D031D031D031D031D031D0353
:108D20001D031D031D031D031D031D031D031D0343
:108D30001D039B02A7021D031D031D03C0021D038B
:108D40001D031D031D03DD021D031D031D031D0364
:108D5000DD021D031D031D031D031D031D03E90289
:108D6000F5021D031D031D031D0313031D031D0336
:108D70001D031D0313030824047123B940F21333A8
:108D800003600120F0BD0AB1047914700B24012B9B
:108D900004710ED84FF44573F2E700240AB1067946
:108DA000165501340E7D06719C4205D340F21533F1
:108DB000E6E70124F2E700240AB1067916550134EA
:108DC00002269C42067103D340F21633D8E70024F2
:108DD0000AB106791655013402269C42067103D366
:108DE00040F21733CCE700240AB106791655013456
:108DF00002269C42067103D34FF44673C0E7002459
:108E00000AB10679165501344E7E06719C4203D391
:108E100040F21933B4E700240AB10679165501343B
:108E200000269C42067103D340F21A33A8E70024BF
:108E30000AB1067916559D4E0027013437709B4EB6
:108E40003678AE4202D340F29A3399E70926A3421C
:108E5000067103D840F2213392E700240AB1067963
:108E60001655013404269C42067103D340F2223386
:108E700086E700240AB1067916558C4E0F7A3678AB
:108E8000DFF82CC2B74204F1010440F2188201F16C
:108E9000090706EB460607EB060E9C42BE5DCCF8C2
:108EA00000E0067103D340F2273369E700240AB1DA
:108EB00006791655013400269C42067103D34FF4FF
:108EC0004A735DE700240AB106791655784E366874
:108ED0000134767806719C4203D340F229334FE780
:108EE00000240AB106791655714E0F7D3668367822
:108EF000B74204F101041ED102269C42067103D33D
:108F000040F22D333CE700240AB1067916550134AE
:108F100002269C42067103D340F22E3330E7002430
:108F20000AB10679165501344E7E06719C4225D34E
:108F300040F22F3324E78F7DB74223D10A269C428B
:108F4000067103D34FF44D731AE700240AB1067972
:108F50001655013400269C42067103D340F2353386
:108F60000EE700240AB106791655013400269C420A
:108F7000067103D340F2363302E700240AB10679C2
:108F8000165501340026A342067103D840F23D3342
:108F9000F6E600240AB106791655454E0F7D36686F
:108FA0003678B74204F1010440F0E98005269C427E
:108FB000067103D340F24233E2E600240AB1067997
:108FC0001655013424269C42067103D340F24333E4
:108FD000D6E600240AB106791655013400269C42D3
:108FE000067103D34FF45173CAE600240AB106791F
:108FF0001655013410269C42067103D340F24533C6
:10900000BEE600240AB106791655013401269C42B9
:10901000067103D340F24633B2E600240AB1067962
:109020001655013405269C42067103D340F249339C
:10903000A6E600240AB106791655013424269C427E
:10904000067103D340F24A339AE600240AB1067946
:109050001655013401269C42067103D340F24B336E
:109060008EE600240AB106791655013403269C4287
:10907000067103D34FF4537382E600240AB10679D4
:10908000165501348E7D06719C4203D340F24D3358
:1090900076E600240AB106791655013404269C426E
:1090A000067108D34FF454736AE600BF4D330020B5
:1090B0005033002000240AB10679165501342426C5
:1090C0009C42067103D340F2513359E600240AB1A1
:1090D00006791655013402269C42067103D340F2EC
:1090E00052334DE600240AB10679165501340226A2
:1090F0009C42067103D340F2533341E600240AB187
:1091000006791655013405269C42067103D340F2B8
:10911000563335E600240AB1067916550134242663
:109120009C42067103D340F2573329E600240AB16A
:1091300006791655013406269C42067103D34FF476
:1091400056731DE600240AB10679165501340E7DCA
:1091500006719C4203D340F2593311E600240AB150
:109160000679165501348E7D06719C4203D340F278
:109170005A3305E600240AB1067916550134534ED8
:1091800036687778524E3770524E00273770514EFE
:1091900037784F4E3678B74204D34F4F3E7801367A
:1091A0003E704CE60726A342067103D840F26E33A8
:1091B000E6E500240AB106791655013405269C42DD
:1091C000067103D340F26F33DAE500240AB1067961
:1091D00016553E4E3F4F36683F7896F801C0BC4565
:1091E00004F1010470D996F802C03E449C4216F87E
:1091F0000C60067103D340F27333C1E500240AB159
:1092000006791655314E0F7D36683678B74204F12F
:10921000010406D103269C4206710DD34FF45E7300
:10922000AEE58F7DB7420BD102269C42067103D377
:1092300040F27D33A4E500240AB1067916550134C5
:109240004026A342067103D84FF4617398E50024C9
:109250000AB106791655013400269C42067103D3E3
:1092600040F285338CE500240AB106791655174E75
:109270000F7D36683678B74204F1010407D10E6AD3
:109280009C42367806710DD340F28A3378E58F7DA3
:10929000B7420BD100269C42067103D340F28F33B4
:1092A0006EE500240AB1067916550134094F3E785F
:1092B00001363E706BE700230360184662E5002329
:1092C000CCF800301B78FFDE0023FBE75033002092
:1092D0004C3300204E3300204D330020037A012B05
:1092E00008D9427B012A00F10C0306D9827B134482
:1092F0005878704700235B78FFDE00231B78FBE77C
:109300002DE9F0470B7888B005460E460E2B1AD88B
:10931000DFE813F0600040016000600019000F00FA
:10932000AB00190019003D011900600060006000E9
:1093300060004A78D1094FEA521335D013F0030385
:1093400003D0012B21D006241BE002F01F02012ACA
:10935000F9D1B478062CF6D105A8039300F0A8FC47
:1093600003AB0093F2783179034607462846FFF7AE
:1093700067F8052805D0039A3946701C00F042FAB8
:109380000446204608B0BDE8F087B378212BDAD137
:10939000B6F80720072AD6D10168701C183108B02A
:1093A000BDE8F04700F02EBA012BCCD1B3780768A6
:1093B000202B11D0222BC6D1B6F80730002BC2D1FA
:1093C0003A8CB6F803303B8402F0010203F001014D
:1093D0008A4225D10024D4E7B6F80730072BB2D152
:1093E0004FF4E462BA8100240DF10B000E37CDE991
:1093F000057307948DF80B4000F0C8FC204605A9C2
:10940000FFF7D2F9044630B9684B03A9CDE903351B
:1094100000F0E6F904469DF80B0000F0DBFCB0E735
:109420008CB2C1F10301C9B2FFF7DEFB002CD1D130
:109430002B7A012B40F2B4806B7B05F10C02002BE0
:1094400000F0B080AB7BD05C05F098F82846FFF7C1
:1094500045FF05F093F807F13403C7E91E44C7E957
:1094600020447C62FC627B678BE7037A002B00F070
:109470009B80837A00F10901002B00F09380C27A6F
:10948000B3788A5C9A42A5D01B06F77809D527B134
:10949000032F14BF0324002473E70121FFF7A4FB6B
:1094A00098E707F0FD03012B94D0002F76D10668D2
:1094B000FFF714FF3E4BB46A059306F10C03814697
:1094C0000693C4B9F36FB467C6E91F43F36A63B187
:1094D000D6E90B0106F1240383E80300F46205A931
:1094E0004846FFF777F9044600E0746200212846F9
:1094F000FFF77AFB45E7D6F884A0706A544528BF89
:10950000544606F134082246414607F023FDF36F26
:109510002344C6E91F73AAEB0403B367F36A444408
:1095200074672BB306F1240406F12C0898E80300B5
:1095300084E80300B36F706AF7621BB9736A002B8B
:10954000CDD116E0B26A716F9A4214D807F002FDCD
:10955000B36AB26FC6F88030D21AB267726F1A441B
:10956000726700212846FFF73FFBF36A002BDDD12D
:1095700073620024BAE71A4607F0ECFCB26FB36AD4
:10958000F2679B1AB362736A13447362D6E70321CE
:10959000FFF72AFB2846FFF72BFB1BE70324F0E627
:1095A0006378FFDE1B78FCE75B78FAE73B8C020010
:1095B0000B8C02001FB503681B8CDC0714D5037AE3
:1095C000012B13D9437B00F10C0493B1837BE05C46
:1095D0009306CDE901120CBF0123002301A90393D7
:1095E000FFF7E2F804B010BD0820FBE700235B782A
:1095F000FFDE1B78FCE70368D3F8800070470000AB
:10960000F7B50468238CDB070F4616463BD5656A21
:10961000002D32D1A16F91420ED3616F384607F011
:1096200099FCA36FC4F880609B1BA367636F3344EE
:109630006367284603B0F0BDC4E90972FFF74EFE28
:10964000134B009304F10C030646019369B10A46DB
:109650003846616F07F07EFCA36FA26AD21AA2623D
:10966000626AC4E91E531A44626269463046FFF7D3
:10967000B1F8002808BF9220DCE7E36A2BB9C4E9FF
:109680000B129220D6E70820D4E71120D2E700BFC2
:109690000B8C0200002070472DE9F04F2DED028B5E
:1096A0004B6885B080460C4601926BB90B681B680D
:1096B0001B684BB98D683DB9C0E90055284605B017
:1096C000BDEC028BBDE8F08F04F01CFE019BE76847
:1096D0009F4228BF1F4604F110034FF0000A08EE16
:1096E000103A8146564601254FB3A3686168BB42D4
:1096F0009B4628BFBB4629B35A4609EB060007F034
:1097000029FC00236360A268E368A2EB0B02A3EBD1
:109710000B03A260E360A7EB0B075E440ABBBAF140
:10972000000F03D02268126812682260DBB1236840
:10973000DBB963601EB1019BB34288BF0025C8E955
:109740000096BBE7002BDED021684B6818EE100AAC
:10975000D3F804A009EB06025B46D0474FF0010A9C
:10976000D1E7002BC0D10025BEE70023029321687A
:109770004B680022D3F804B002A80123D84708B9E7
:109780002061B1E7A3680133A360F0E7084B1A78C2
:1097900082420CD0052818BF064A187018BF1378EB
:1097A00005481CBF23F002031370FFF7A5B87047EC
:1097B000603300207C3300204C19030008B50020E2
:1097C000FEF792FFBDE808408020FEF78DBF08B588
:1097D0000020FEF797FFBDE808408020FEF792BF0B
:1097E00038B505460C4604F01FFEA84205BFD4E973
:1097F0000001034B1020C3E9000108BF002038BD61
:10980000803300207FB5C38893421E4628BF16468A
:1098100093420D46144625D9802004F09DFCB4FBEC
:10982000F0F202FB1044B4FA84F4640900230DF151
:10983000030003948DF80330CDE9015600F0A6FA39
:1098400001A98020FEF7B0FF044620B90649802018
:10985000FFF7C6FF04469DF8030000F0BBFA204660
:1098600004B070BD0024E1E7801903002DE9F04F3A
:109870000B780E2B89B00D4613D8A3B1013B0D2BED
:1098800011D8DFE813F012001A00160010002A00A9
:10989000F40110001000100010001A00DE01E201B7
:1098A000F201852B13D00624DBE10320FFF76EFFC6
:1098B000F9E7A84800F048FC08B90024D1E1A64B1C
:1098C0000122DA65BFF36F8FBFF34F8FF5E7A34B2C
:1098D0001B78032BE7D10420E8E70523A04D8DF882
:1098E00014300DF1150004F02FFD00232B609DF8BE
:1098F000153003F01F07032F00F25C81DFE817F03B
:109900000400F4005101370013F0600FC3F3411855
:109910002DD1DB099DF8162000F09F80062A0FD07C
:10992000082A00F08C8012BB8E490B708E4B4A7057
:109930001B789A0744BF03230B70022289490EE06B
:109940009DF81830022B16D0032B68D0012B0ED1B6
:10995000BDF81B30002B00F07181844912220DF1FB
:109960001500FFF74FFF0446062C40F02B8105A899
:10997000FEF708FF13E1BDF81B60002E00F05E81CA
:10998000092E28BF0926FEF7BFFE4FF0090904463D
:1099900074BB744C76493246204607F0DBFA2771D7
:1099A000A4F80290FEF798FE18B1E37943F0200383
:1099B000E371FEF7A9FE6F4BC3E900049E60BDF89A
:1099C0001B20DA6003A800238DF80C3000F0DEF9CC
:1099D00069498020FEF7FEFE044620B967498020D1
:1099E000FFF7FEFE04469DF80C0000F0F3F9BBE71C
:1099F000CDF80C804FF0000A63680022D3F804B061
:109A00002146012303A8D84730B9237A1F4423688D
:109A1000D1441C68FFB2BBE70AF1010AECE7BDF8CC
:109A20001B30002B00F00A81BDF819109DF81700BB
:109A300000F08EF90146002899D002788FE7474A56
:109A40001278052A03D1474A1370012276E7042AC7
:109A50008DD1444B83F80080F7E7032A10D0092A00
:109A60002CD0012A83D1BDF81730012B7FF47FAFB2
:109A7000FEF732FE60B13C4A137823F002030FE098
:109A8000BDF81730012B7FF472AFFEF725FE18B931
:109A90000F2404F0BFFCE4E0334A137843F00203E0
:109AA00013702B68002B00F0C98004F0BDFC044645
:109AB00000287FF402AF04F069FCD2E0274B1B784A
:109AC000043B012B01D90824E3E79DF817302BB99B
:109AD000FEF7FEFE0420FFF759FEE2E7012B57D107
:109AE000FEF7E2FE0520F6E79DF8190003A9FEF750
:109AF00011FE064608B91024CBE79DF80C1005AA04
:109B0000FEF720FE062804465CD19DF8152012F0D1
:109B1000600FBED1114B9DF80C1018789DF81630CF
:109B2000D2092DD07BB10A2BB3D10528CBD1304639
:109B30000192FEF7B3FE0B49019A08700DF1150072
:109B4000FFF760FE2BE00528BDD106490B800222FD
:109B5000F4E700BF8833002000700240603300202B
:109B6000803300208C3300207C3300206C190300EC
:109B70004D19030064330020881903008019030085
:109B80000B2B86D105289ED1BDF81730FF2B01D9AC
:109B900007247EE79DF817203046FEF731FE044685
:109BA00010E09DF81900030706D19DF8153013F059
:109BB000600F0BD006246CE705A9FEF7C6FD06284A
:109BC0000446F2D0002C3FF46CAF62E79DF81620FB
:109BD000344B9DF819401B78012A1DD0032A0CD064
:109BE000002AE7D1052B02D027077FF46CAF20466F
:109BF00004F098FB2C490880A9E72607DAD4BDF8C1
:109C00001720002AD6D12007D4D0052B7FF45BAFD4
:109C1000204604F07BFB44E72107CBD4BDF8172096
:109C2000002AC7D12207C5D0052B7FF44CAF2046B0
:109C300004F07AFB204604F03DFE32E704F0E0FB3E
:109C40003BE60020FFF7A2FD37E64FF08043D3F854
:109C5000384414F0010401D00220F3E70120FFF79B
:109C600095FD204609B0BDE8F08F0120EAE7C878ED
:109C700003283FF418AE0D4E33688BB10022716893
:109C800032609847044600287FF403AF336823B15D
:109C9000AB78002B7FF411AE0DE704F0B1FBE0E7E9
:109CA0000E24F6E6603300208C3300208033002041
:109CB00008B1402303600148704700BF8C33002087
:109CC00070B54FF0805286B0D2F8A830D2F8A420F8
:109CD00000926FEA83436FEA93430B4A0B4E9BB2A9
:109CE0000D2102A807F00CF902AD002402A807F02C
:109CF0008DF9844201D306B070BD15F8013B06F81A
:109D0000013B0134F2E700BF90190300CC3300207F
:109D100010B50E4B53F8204023780BB9A01C10BD92
:109D20000020FFF7C5FF013C00235A1CA15C39B994
:109D3000DBB201335B00DBB243F440730380EEE738
:109D4000D3B220F813101346EFE700BFEC1903005D
:109D5000034608B9FFF7DCBF012807D0022805D069
:109D6000032803D0042801D0052809D1054800EBB9
:109D70004303587820B1044B53F82030002BE9D12D
:109D800000207047041A0300EC19030070B5EFF3CC
:109D9000108672B60C4A946801239CB993600B4BF1
:109DA0000B4DD3F8801029401160C3F88050D3F8D0
:109DB000841051604FF0FF32C3F88420047006B95C
:109DC00062B670BD0370FAE7DC33002000E100E00A
:109DD000FC06FFBD084B9A6810B55AB150B9EFF3B5
:109DE000108172B6054A1C6814605C685460986003
:109DF00001B962B610BD00BFDC33002000E100E015
:109E00001EF0040F1CBFEFF309800AE0EFF3088097
:109E10000549064A884201D8904202D88D464FF043
:109E20000000034B184700000000022000F801204A
:109E3000599E0200BFF34F8F0549064BCA6802F4D2
:109E4000E0621343CB60BFF34F8F00BFFDE700BF5D
:109E500000ED00E00400FA052DE9F3470546FDF7A3
:109E600047FEFDF7A5FC0028FBD12D4C2D482E4BBD
:109E7000241AE40824049F6A44F00104002D49D008
:109E8000AA692A492046FDF7E3FDEB680193AB6818
:109E9000274900932046D5E90023FDF7F8FDEB693B
:109EA00000932449D5E904232046FDF7E4FD1E4B29
:109EB000DB6A990703D520492046FDF7C5FDDFF889
:109EC0008890DFF888A000264FF0010808FA06F312
:109ED0003B4206D059F826201AB151462046FDF7DC
:109EE000B7FD01361A2EF1D13A0605D50E4B1349AE
:109EF0005A6B2046FDF7ACFD3B0405D50A4B1049D3
:109F00009A6B2046FDF7A4FD2846FFF793FF02B0A9
:109F1000BDE8F0870B492046FDF796FDC7E700BF77
:109F20004C170300E416030000ED00E0101A0300D4
:109F3000251A03005A1A0300B51A0300041B030074
:109F4000241B0300821A030000200300F91A0300F7
:109F500010B561B1B2FBF3F403FB1424A4B244B90D
:109F6000C0E9001484608281C381204610BD0E20A8
:109F7000FCE70920FAE737B550E8013F9DB2C489F4
:109F800025448489A54228BF2D1B0489A54202BF10
:109F9000BFF32F8F002207E0C5EA030540E8015414
:109FA000002CE9D14FF001028DF803200193019AB2
:109FB0000A609DF8031001F0FF0321B1006810FA58
:109FC00082F003B030BD1846FBE70A884B889A42FE
:109FD00009D150E8012FC2EA024240E80123002BD8
:109FE000F7D1012070470020704737B550E8023F95
:109FF0001FFAA3F5C488A54202BFBFF32F8F00222A
:10A000000DE0C48925448489A54228BF2D1BC3EADD
:10A01000054540E80254002CE8D14FF001028DF8CC
:10A0200003200193019A0A609DF8031001F0FF03D9
:10A0300021B1006800EB124003B030BD1846FBE7C9
:10A040000A884B889A4209D150E8022FC2EA22427C
:10A0500040E80223002BF7D1012070470020704711
:10A0600001F01F024B090121914000EB830000F039
:10A070001EB801F01F0301229A404B0900EB830038
:10A08000D14300F02CB84B0901F01F0150F8230018
:10A09000C84000F00100704710B5034653E8000FB8
:10A0A0000A4643E8002494F0000FF7D110BD10B524
:10A0B000034653E8002F42EA010043E8000494F00D
:10A0C000000FF6D110BD10B5034653E8000F00EAAB
:10A0D000010243E8002494F0000FF6D110BD10B542
:10A0E000034653E8002F02EA010043E8000494F01D
:10A0F000000FF6D110BD10B5034653E8002F02EB58
:10A10000010043E8000494F0000FF6D110BD10B533
:10A11000034653E8002FA2EB010043E8000494F04B
:10A12000000FF6D110BD10B5034653E8002F8A4248
:10A130002CBF501A104643E8000494F0000FF4D1ED
:10A1400010BD0121FFF7B3BF0021FFF7BCBF10B561
:10A1500090B1D0E9012301689B1ADBB20A60013B90
:10A16000DBB2FF2B026802D10020107110BD116814
:10A170004C1C14600B70F2E70E20F7E737B505466C
:10A1800000240DF107008DF80740FFF7FFFD2A6856
:10A190006B68116899420ED9481E106011F8013C95
:10A1A000EC68298A01FB0344AB6811791B1ADBB206
:10A1B000994238BF13719DF80700FFF70BFE204648
:10A1C00003B030BD37B5054600230DF107000C463E
:10A1D0008DF80730FFF7DAFD2A681368591C116003
:10A1E000E968641A298AB4FBF1F41C709DF8070031
:10A1F000FFF7F0FD03B030BD826810B504462AB108
:10A2000043690168006998470023A36010BD0EB43C
:10A2100003B5039921B104AB01AA019300F076F8CC
:10A2200002B05DF804EB03B070470A2938B5044664
:10A230000D4602D10D21FFF7F8FFA3682268591CD3
:10A24000A160D554D4E901329A4204D32046BDE836
:10A250003840FFF7D1BF38BD2DE9F84F9846DDE90A
:10A260000A43154682460F460A464FF00109AA42A4
:10A270000FD2C14538BFC14613F0010B01D16CB9F3
:10A2800000240126B8F1010F1BD908F1FF386E43F5
:10A29000F8E709F10109B2FBF5F2E8E79B070ED5F3
:10A2A000B8F1000F0CBF30262026A145E9D2013CB1
:10A2B00031465046FFF7B9FF002CF6D1E0E72026E3
:10A2C000F3E7B7FBF6F39D42E1D9DFF83C80B7FB3B
:10A2D000F6F3504618F8031006FB1377FFF7A5FFB7
:10A2E0003346AB42B6FBF5F6F1D2BBF1000F02D01C
:10A2F0000CB1A14501D3BDE8F88F20215046013CA7
:10A30000FFF793FFF4E700BF682003002DE9F74F44
:10A31000054617468846002900F03E8118F8011BC3
:10A3200049B92B7B002B00F03781284603B0BDE8EC
:10A33000F04FFFF761BF252940F0B780002698F85D
:10A3400000302D2B424608F1010823D0302B24D0B9
:10A350002B2B25D000242A2B02F1010123D13B68AD
:10A360001A1D1B683A601C440A4613782E2B26D10E
:10A3700001324FF0000A104610F8011BA1F1300C19
:10A38000BCF1090F1DD80A2303FB0A13A3F1300AFD
:10A390000246F0E746F00106D1E746F00206CEE7B6
:10A3A00046F00406CBE711F8013CA3F13000092880
:10A3B000DBD80A2202FB0434303C0A46CBE74FF0DC
:10A3C000000A12F8011B01F0FB0068289046F8D043
:10A3D000782909D86F290CD8632962D022D8252979
:10A3E00063D0582900F0888098F80030002B95D170
:10A3F00097E770390829F7D801A353F821F000BF77
:10A4000073A50200E9A30200E9A3020009A5020066
:10A41000E9A30200E7A40200E9A30200E9A3020005
:10A42000F9A40200642901D06929DDD13A68D2F883
:10A430000090111D89EAE9723960A2EBE9724FF0D0
:10A44000010B092A35DCD34538BFD3462CB1B9F10D
:10A45000000F01DB720700D5013CB30702D5BAF14A
:10A46000000F03D0F00701D44CBB0024B9F1000F5A
:10A470002DDAC9F100092D212846FFF7D6FE06F096
:10A480000302022A04D1BAF1000F01D11CBB00243F
:10A49000CDE9004653460A2249462846FFF7DCFE2E
:10A4A000A2E73B681A1D19783A602846FFF7BDFEFF
:10A4B0009AE70A230BF1010BB2FBF3F2C1E7A345C4
:10A4C000D4D220212846013CFFF7AFFECCE771072C
:10A4D000D5D52B21D0E7A345DAD230212846013C3F
:10A4E000FFF7A3FED2E73968CDE900460A1D3A60BE
:10A4F00053460A220968D0E739680A1D3A60CDE957
:10A50000004653461022F5E73B681A1D3A6016F0E4
:10A510000106D3F8009024D1B9F1000F03D04846CA
:10A5200006F074FD0646B4421DD809F1FF3919F84A
:10A53000011F00293FF458AF2846FFF776FEF6E7E3
:10A5400028460136FFF771FE19F806100029F7D1E9
:10A55000A642BFF449AF20212846013CFFF765FE23
:10A56000F6E70026F0E720212846013CFFF75DFED4
:10A57000D9E73B681A1D3A60302128461C68FFF76E
:10A5800054FE78212846FFF750FE00220823CDE92B
:10A5900000322146102280E703B0BDE8F08F00BFF3
:10A5A0002DE9F84FB0F806A04579D2F800B09DF833
:10A5B00028900AFB05F5043D88460BEB0301A942F0
:10A5C00003F1040488BFA5EB030BB4FBFAF60746BE
:10A5D0000AFB1644C2F800B04EB9AAEB04055D456B
:10A5E00028BF5D46BBF1000F04D1BDE8F88F3F687E
:10A5F000013EF1E7043408EB06003C442A46B9F179
:10A60000000F0DD02146ABEB050B06F0A3FCDA459D
:10A610002E443F6855464FF0000428BF5D46E1E7F1
:10A6200001462046EFE7FFF792BDF8B546790146AF
:10A63000721E0546002393422D6803D30024A642D0
:10A6400002D8F8BD0133F6E70F682846FFF7BAFDD8
:10A6500001343946F3E72DE9F843068ACD1C074655
:10A66000FFF78CFD043E35440446B5FBF6F5F0B12A
:10A670004FF48073EDB28380C680013D0760814650
:10A680004FF00008A84512D23846FFF777FD06467E
:10A6900048B163790133637108F10108C9F800001A
:10A6A00007608146EEE72046FFF7BFFF34462046AD
:10A6B000BDE8F88301210430FFF71DBD10B501216D
:10A6C00004460430FFF723FDC0B220B92046BDE8A0
:10A6D0001040FFF7AABF10BD1FB5039200220092E1
:10A6E00003AAFFF75DFF05B05DF804FB1FB50392F9
:10A6F0000122009203AAFFF753FF05B05DF804FBA7
:10A70000836800225A60C3E904229A60DA601A6002
:10A7100070470B684A684360934208BF002301609A
:10A7200008BF43607047436843B10268916852684C
:10A730000B449342436004BF002343607047000012
:10A7400010B50D49A1F59472914201D800200FE097
:10A750008C1AE30F03EBE4035B1002EBC30452F823
:10A760003330834205D802D204F10802ECE7606876
:10A7700010BD2146E8E700BF7825030008B5FFF7C4
:10A78000DFFF024B002808BF184608BD3B2403002A
:10A790004FF08053D3F83001A0F10D0358425841D7
:10A7A00070470000024AD2F80034002BFBD07047FB
:10A7B00000E0014010B5FFF7EBFF40B14FF08043E0
:10A7C0000022C3F80C21C3F81021C3F83825FFF785
:10A7D000DFFF002846D04FF08052514BD2F80414CE
:10A7E000C3F82015D2F80814C3F82415D2F80C14B5
:10A7F000C3F82815D2F81014C3F82C15D2F8141485
:10A80000C3F83015D2F81814C3F83415D2F81C1454
:10A81000C3F84015D2F82014C3F84415D2F8241414
:10A82000C3F84815D2F82814C3F84C15D2F82C14E4
:10A83000C3F85015D2F83014C3F85415D2F83414B4
:10A84000C3F86015D2F83814C3F86415D2F83C1474
:10A85000C3F86815D2F84014C3F86C15D2F8442434
:10A86000C3F87025FFF794FF48B14FF08043D3F849
:10A870000024D20744BF6FF00102C3F80024294A24
:10A88000D2F8883043F47003C2F88830BFF34F8F9A
:10A89000BFF36F8F4FF08053D3F830210D2A0ED1C4
:10A8A000D3F83431022B02D81F4AD35C3BB14FF0AE
:10A8B0001023D3F808224FF08043C3F858254FF0F7
:10A8C0001023D3F80022002A03DBD3F80432002B34
:10A8D00022DA164901234FF01020C1F80435122462
:10A8E000FFF760FFC0F80042FFF75CFFC0F80442CA
:10A8F000FFF758FF0023C1F80435FFF753FFBFF3FC
:10A900004F8F08490A4BCA6802F4E0621343CB60D8
:10A91000BFF34F8F00BFFDE7064B074A1A6010BD1B
:10A9200000C0004000ED00E07825030000E0014099
:10A930000400FA050C2B00200090D00338B5430723
:10A9400004461CBF20F00704083400F0E9FD0C4A5F
:10A9500013681BB90B4B23F0070313600A490B68FC
:10A9600041F6F7701C44844208D8A34206D2156809
:10A970000C601D4400F068FE284638BD0025F9E74C
:10A98000E8330020F4330020EC530020704700F13E
:10A9900008034FF0FF32C0E9022343600361002344
:10A9A0000360704700230361704743684B609A68F7
:10A9B0008A609A6851609960036808610133036096
:10A9C000704730B50C68631C0AD103695A684A6045
:10A9D00091608B605960036808610133036030BD8A
:10A9E00000F10802134652681568A542FAD9EDE74E
:10A9F000D0E9011203698A6051605968814208BF39
:10AA00005A60002202611A68013A1A601868704799
:10AA10000748006880F3088862B661B6BFF34F8FBD
:10AA2000BFF36F8F4FF4F07080F3118800DF00BF29
:10AA300000700200064B19680868B0E8F04F80F318
:10AA40000988BFF36F8F4FF0000080F311887047C3
:10AA500004540020EFF30980BFF36F8F144B1A6882
:10AA60001EF0100F08BF20ED108A20E9F04F106093
:10AA70004DF8043D4FF0400080F31188BFF34F8F35
:10AA8000BFF36F8F00F0AAFE4FF0000080F3118833
:10AA900008BC19680868B0E8F04F1EF0100F08BF36
:10AAA000B0EC108A80F30988BFF36F8F704700BF46
:10AAB00004540020402383F31188FEE74FF0807395
:10AAC00040E90213054B40F80C3C6FF0020340F8DC
:10AAD000202C40F8243C4438704700BFB5AA02003F
:10AAE0000F4C08B5E02384F8223000F06DF80D4BD0
:10AAF00000221A60D4F888300B4A43F47003C4F87B
:10AB00008830536B43F040435363236943F0100391
:10AB10002361FFF77DFF402383F31188FEE700BF29
:10AB200000ED00E0F053002000EF00E0402383F34D
:10AB30001188024A1368013313607047F0530020F4
:10AB4000034A1368013B13600BB983F31188704704
:10AB5000F053002041DF704773B5194B0022C3F852
:10AB60004021D3F8401101910199EFF31186402162
:10AB700081F31188D3F80445C3F80021D3F80031DC
:10AB80000093009B00F0D4FC201A20F07F4424F0B6
:10AB9000010020B100F068FF022818BF0124002541
:10ABA000013C09D225B1074B4FF080525A6040BF9B
:10ABB00086F3118802B070BD00F0CEFC0543EFE7CC
:10ABC0000010014000ED00E008B5002001F020FB7E
:10ABD000094B1F22C3F808250122C3F804239A60F9
:10ABE0001A600222C3F84423044BE02283F81123A5
:10ABF0004FF400321A6008BD0010014000E100E08F
:10AC00002DE9FF410746EFF3108072B63F4DAB6868
:10AC100083B90123AB603E4B3E49D3F880200A4004
:10AC20002A60C3F88010D3F884206A604FF0FF32A6
:10AC3000C3F8842000B962B6374CD4F8048500F01C
:10AC4000F3FE002850D0354EBE4228BF3E4606EBEC
:10AC5000080323F07F430122C4F80823C4F84035D9
:10AC60000023C4F84031D4F840310193019B4FF4E4
:10AC70008033C4F80433BFF34F8F87B105F048FF2A
:10AC800040B9234B20BFD3F80011D3F804210A4365
:10AC9000F8D004E0FFF75EFF08B1FDF7D3F94FF4F9
:10ACA0008033C4F808330023C4F84031D4F840217D
:10ACB0000392039AC4F80031D4F800310293029B46
:10ACC0000123C4F80433D4F80405114BA0EB0800A9
:10ACD00020F07F40B0424FF4003228BF3046C3F826
:10ACE000802108B100F030FCAB685BB1EFF310825B
:10ACF00072B6074B29681960696859600023AB6018
:10AD000002B962B604B0BDE8F08100BFDC330020B8
:10AD100000E100E0FC06FFBD00100140FDFFFF0068
:10AD200010B50446FFF702FFA46BFFF709FFB4FA62
:10AD300084F0400910BDF8B51546026C866B0446D8
:10AD400052B9076847BB406800F09EFE6760054641
:10AD50000136A6632846F8BD65B9806806F0FAF8A2
:10AD6000A368226C13446268A3609342F0D3236803
:10AD7000A360EDE7C06806F0EDF8226CE36851428D
:10AD80009B1A2268E36093423EBF63685B18E360EE
:10AD9000022D01D116B1013E0025D9E73546D7E78E
:10ADA000034610B41A6C08466AB1DC68596814444A
:10ADB0008C4228BF1968DC6028BFD960D9685DF86B
:10ADC000044B06F0C7B85DF8044B704770B50446F5
:10ADD000FFF7ACFE94F8455004F124066DB2002D47
:10ADE00014DCFF2384F84530FFF7AAFEFFF79EFE30
:10ADF00094F8445004F110066DB2002D12DCFF23CC
:10AE000084F84430BDE87040FFF79ABE636A002BB7
:10AE1000E7D0304600F092FD08B100F0FFFD013DA3
:10AE20006DB2DCE72369002BE9D0304600F086FDE7
:10AE300008B100F0F3FD013D6DB2DEE738B5044620
:10AE40000D46FFF773FED4E90F312268A2604B4331
:10AE5000D0185B1A13446060E3600020FF23A063F6
:10AE600084F8443084F845309DB923696BB104F10E
:10AE7000100000F063FD40B10A4B4FF080525A6061
:10AE800040BFBFF34F8FBFF36F8FFFF759FE012015
:10AE900038BD04F11000FFF77AFD04F12400FFF73C
:10AEA00076FDF2E700ED00E070B506464843483015
:10AEB0000D46FFF743FD044648B155B100F1480384
:10AEC000C4E90F65236001212046FFF7B7FF204644
:10AED00070BD0346F4E700002DE9FF474FF000087E
:10AEE000DFF8F8A0019204460F461E46C146FFF760
:10AEF0001DFEA26BE36B9A4201D3022E1AD1324699
:10AF000039462046FFF717FF636A1BB104F124009E
:10AF100000F014FD40B1314B4FF080525A6040BFF9
:10AF2000BFF34F8FBFF36F8FFFF70AFE012004B00E
:10AF3000BDE8F087019D1DB9FFF702FE0020F6E78E
:10AF4000B8F1000F02D102A800F034FDFFF7F8FDC0
:10AF500000F0E6FAFFF7EAFD94F84430FF2B08BF53
:10AF600084F8449094F84530FF2B08BF84F845904E
:10AF7000FFF7E6FD01A902A800F028FD38BBFFF7A6
:10AF8000D5FDA26BE36B9A420FD1FFF7D9FD019972
:10AF900004F1100000F0AEFC2046FFF717FF00F0B0
:10AFA00053FB50B14FF00108A1E7FFF7C9FD204660
:10AFB000FFF70CFF00F048FBF4E74FF08053CAF8AE
:10AFC000043040BFBFF34F8FBFF36F8FEAE72046D7
:10AFD000FFF7FCFE00F038FBB0E700BF00ED00E03B
:10AFE000F8B504461746EFF31186402282F3118824
:10AFF000806BE26B904201D3022B1ED194F8455036
:10B000001A466DB22046FFF796FE6B1C10D1636A9C
:10B010000BB9012009E004F1240000F08FFC0028A6
:10B02000F7D0002FF5D00120386086F31188F8BDE5
:10B0300001356DB284F84550EBE70020F5E70000DC
:10B040002DE9F04385B00027DFF8E4900192044633
:10B050000E46B846FFF76AFDA56BDDB131462046C6
:10B06000013DFFF79DFEA56323696BB104F110005C
:10B0700000F064FC40B12E4B4FF080525A6040BF4C
:10B08000BFF34F8FBFF36F8FFFF75AFD012005B05D
:10B09000BDE8F083019D1DB9FFF752FD0020F6E7E2
:10B0A00017B902A800F086FCFFF74AFD00F038FA55
:10B0B000FFF73CFD94F84430FF2B08BF84F8448030
:10B0C00094F84530FF2B08BF84F84580FFF738FD22
:10B0D00001A902A800F07AFCF8B92046FFF720FE8B
:10B0E000A8B1019904F1240000F004FC2046FFF708
:10B0F0006DFE00F0A9FA40B94FF08053C9F8043052
:10B1000040BFBFF34F8FBFF36F8F0127A2E72046E9
:10B11000FFF75CFE00F098FAF7E72046FFF756FECF
:10B1200000F092FA2046FFF7FBFD0028EDD0B5E7CE
:10B1300000ED00E0054B1A6812B19A682AB90122A5
:10B1400043F8321003EBC20358607047F4530020F9
:10B1500070B504460D461646FFF7E8FC94F84430F7
:10B16000FF2B04BF002384F8443094F84530FF2BB4
:10B1700004BF002384F84530FFF7E2FCA36B2BB932
:10B180003246294604F1240000F0C4FB2046BDE805
:10B190007040FFF71BBE0000F8B51A4B1A4E1D6831
:10B1A0000446306804300F46FFF722FC40B932688D
:10B1B0001649D06A0B680122824023EA02030B6021
:10B1C000631C07D137B131681148BDE8F84004313C
:10B1D000FFF7EBBB33682C195C6007D30D4B186885
:10B1E0003168BDE8F8400431FFF7EBBB0A4B186843
:10B1F00031680431FFF7E5FB084B1A68A24288BFAB
:10B200001C60F8BDD8540020045400206054002075
:10B21000B05400200C54002008540020905400200A
:10B22000094B0A4A1B681268D06A58B9084A126862
:10B23000012A08D8012B06D8064B1868064B1B6854
:10B24000C01A70470020704760540020045400204A
:10B250001054002090540020D8540020064A13684F
:10B260001968064B19B94FF0FF321A60704712681F
:10B27000D268D2685268F8E7085400209054002041
:10B280002DE9F84F9500074628460E469846FFF7E9
:10B2900055FB8146002800F09E804820FFF74EFBBA
:10B2A0000446002800F09480C0F830902A46A5217A
:10B2B000484605F078FED4F830B0731E04F134022D
:10B2C000033613F8011F02F8011B09B19E42F8D1A1
:10B2D0000A9E022E28BF02264FF0000A04F104093C
:10B2E000C4E90E6AE662484684F837A0043DFFF7D9
:10B2F00059FBC6F1030604F118005D44FFF752FB49
:10B30000C4F840A02461A661646284F844A0424667
:10B31000394625F00700FFF7D1FB0B9B206003B1F6
:10B320001C60FFF703FC324B324E1A68324F013279
:10B330001A603268002A51D134601B68012B1FD17A
:10B340002E48DFF8E8802E4DFFF721FB2D48FFF750
:10B350001EFB2D48FFF71BFB4046FFF718FB284656
:10B36000FFF715FB2948FFF712FB2948FFF70FFBF2
:10B370002848FFF70CFB284BC3F80080274B1D60C3
:10B38000274A28491368086801331360E26A0125D7
:10B3900005FA02F303430B60184B142000FB023044
:10B3A0004946FFF702FBFFF7CBFB3B686BB1336805
:10B3B000DA6AE36A9A4208D21B4B4FF080525A6015
:10B3C00040BFBFF34F8FBFF36F8F2846BDE8F88FA4
:10B3D0004846FFF7DBFA4FF0FF35F6E73B68002BF6
:10B3E000CED13368DA6AE36A9A4298BF3460C7E71D
:10B3F0004C54002004540020AC5400201054002071
:10B400007854002024540020385400209854002000
:10B41000C4540020B0540020085400200C540020D4
:10B420005C5400206054002000ED00E064540020D3
:10B4300073B50446002834D01B4D2B68834230D0AE
:10B44000FFF774FB6269194B9A4225D1A36A184A27
:10B45000934221D003BB211D08460191FFF7C8FA92
:10B460001448E26A0668019901239340334303605C
:10B47000114B142000FB0230FFF797FA2B68E26AA9
:10B48000DB6A9A4208D30D4B4FF080525A6040BF9E
:10B49000BFF34F8FBFF36F8F02B0BDE87040FFF76F
:10B4A0004FBB02B070BD00BF04540020B054002058
:10B4B00098540020605400201054002000ED00E05B
:10B4C00013B5114B019300241049114800942346F1
:10B4D0003C22FFF7D5FE012813D100F02FFC0128F4
:10B4E0000FD1402383F311880A4B4FF0FF321A60CB
:10B4F000094B1860094B1C6002B0BDE81040FFF713
:10B50000EFBA02B010BD00BF8C5400207B250300B1
:10B5100055B7020090540020AC540020D8540020AD
:10B52000024A136801331360704700BF585400206B
:10B53000014B1868704700BFD8540020014B1868B1
:10B54000704700BFD8540020024A136818441060A6
:10B55000704700BFD85400202DE9F84F2F4B1B68CF
:10B56000002B54D12E4B1D6801351D605DB92D4A4D
:10B570002D4B1168186810602C4A1960136801334C
:10B580001360FFF76BFE2A4F3B68AB424FF000069B
:10B5900007D9284B1B68002B0CBF30460120BDE8A3
:10B5A000F88FDFF88090DFF89880DFF898A0D9F85E
:10B5B00000301B681BB94FF0FF333B60E9E7D9F857
:10B5C0000030DB68DC6863689D42F6D304F1040B4D
:10B5D0005846FFF70DFAA36A1BB104F11800FFF7F4
:10B5E00007FAE26AD8F800100123934014200B43B5
:10B5F00000FB02A05946C8F80030FFF7D6F90E4B01
:10B60000E26A1B68DB6A9A4228BF0126CFE70B4A31
:10B610001368013313600026BBE700BF58540020B5
:10B62000D8540020085400200C54002094540020CA
:10B6300090540020DC540020045400205454002076
:10B6400060540020105400202DE9F341FFF76EFAFA
:10B650002B4B1A68013A1A601C6834B10024FFF7BA
:10B660006FFA204602B0BDE8F081264B1B68002B24
:10B67000F4D0254D254EDFF8A8801FE0EB68DC688C
:10B6800004F11800FFF7B4F9211D08460191FFF7F6
:10B69000AFF9E26A30680199012707FA02F3034320
:10B6A000142000FB02803360FFF77FF9184BE26A39
:10B6B0001B68DB6A9A4201D3164B1F602B68002B74
:10B6C000DCD10CB1FFF7CAFD134D2C6844B1114E0B
:10B6D0000127FFF741FF00B13760013CF9D12C6031
:10B6E0000C4B1B68002BB9D00C4B4FF080525A60AA
:10B6F00040BFBFF34F8FBFF36F8F0124AFE700BF91
:10B70000585400204C5400209854002060540020CD
:10B7100004540020DC5400205454002000ED00E0CC
:10B720001054002008B548B9094B4FF080525A60B8
:10B7300040BFBFF34F8FBFF36F8F08BD0021FFF7EE
:10B74000EFFEFFF729FDFFF77FFF0028ECD0F4E7BD
:10B7500000ED00E0F8B51C4C1C4F1D4E2368EBB902
:10B760001C4B1B68012B08D91B4B4FF080525A60B1
:10B7700040BFBFF34F8FBFF36F8F03F043FEFFF760
:10B780004FFD0128E9D9FFF7CBFEFFF749FD01285E
:10B7900001D9FFF735FAFFF757FFDEE7FFF7C6F9E4
:10B7A000FB68DD68281DFFF723F93368013B336030
:10B7B0002368013B2360FFF7C3F9286BFFF7E6F826
:10B7C0002846FFF7E3F8C9E750540020C45400208E
:10B7D0004C5400201054002000ED00E0114B1A687A
:10B7E000114B30B512B101221A6030BD1A600F4BF7
:10B7F0000F491B68B3FA83F3C3F11F03142505FB3C
:10B8000003F2881808324468646844600A44944229
:10B8100004BF6268426005FB03135B68DA68054B8E
:10B82000E2E700BF58540020DC54002060540020A0
:10B830001054002004540020F8B50446264DFFF7AC
:10B8400075F904B92C68261D3046FFF7D1F860B9A8
:10B85000E76A224B142078431B5833B92049012250
:10B860000B68BA4023EA02030B60A36A1BB104F120
:10B870001800FFF7BDF831461A481B4EFFF795F840
:10B8800094F84430012B04BF002384F84430FFF7C0
:10B8900057F933682BB1FFF749F9FFF7DFFCFFF7E2
:10B8A0004FF92B68A3420AD133684BB10F4B4FF0CD
:10B8B00080525A6040BFBFF34F8FBFF36F8FF8BD08
:10B8C000084A11680A4A1268914201D12B60F6E7D2
:10B8D000BDE8F840FFF782BF045400201054002058
:10B8E00060540020B0540020AC54002000ED00E073
:10B8F0004C54002010B5064B0C4619681831FFF760
:10B9000060F820460121BDE81040FFF745BC00BFAC
:10B910000454002038B5084B0D46196814461831F8
:10B92000FFF743F8002C21460CBF28464FF0FF30AC
:10B93000BDE83840FFF730BC04540020C36837B579
:10B94000DC6804F1180108460191FFF751F8134B28
:10B9500001991B6803BB211D08460191FFF748F8B8
:10B960000F48E26A05680199012393402B43036065
:10B970000C4B142000FB0230FFF717F80A4BE26A69
:10B980001B68DB6A9A4285BF084B012000201860C3
:10B99000FFF764FC03B030BD0548EDE758540020C4
:10B9A000605400201054002004540020DC54002077
:10B9B00098540020034B1B680360034B1B684360D3
:10B9C000704700BF94540020D854002070B50C4636
:10B9D0000546FFF7ABF80F4B196823685A1C10D0C7
:10B9E0000D482E6800686A68864201D08A420FD9E5
:10B9F000881A83420AD95B1A134423602846FFF74A
:10BA0000D9FF0024FFF79CF8204670BD0023236077
:10BA10000124F7E7D854002094540020014B012260
:10BA20001A607047DC540020084B186860B9084B56
:10BA30001B6853B9074B1868074B1B68013B9842BA
:10BA400014BF012002207047002070479854002046
:10BA5000DC540020B05400204C540020014B1868E6
:10BA6000704700BF04540020054B1B6833B1054BE1
:10BA70001B68002B0CBF022000207047012070477C
:10BA8000AC54002058540020F7B5044610B90020EB
:10BA900003B0F0BDC36BC16A826B013B9142C363CB
:10BAA000F5D0002BF3D1011D08460191FEF7A0FF50
:10BAB000104F114A019950B9E06A14264643BB5908
:10BAC0002BB913680125854023EA05031360A36B96
:10BAD000E362C3F10300A0611068012404FA03F5D6
:10BAE0000543142000FB03701560FEF75EFF20463F
:10BAF000CEE700BF105400206054002070B5174CF2
:10BB000006460D46FFF712F823681B6C83B92368BD
:10BB1000012183F844105DB12846FFF73DFB104B2F
:10BB20004FF080525A6040BFBFF34F8FBFF36F8F0B
:10BB3000FFF706F8FEF7FAFF23681D6C1DB12368B6
:10BB40004EB100221A642368002283F84420FEF7D5
:10BB5000F7FF284670BD6A1EF4E700BF04540020BA
:10BB600000ED00E0F7B51D4604460F461646FEF709
:10BB7000DDFF0DB1236C2B6094F844500223721E3C
:10BB8000EDB284F84430032A0AD8DFE802F0020656
:10BB90000411216C0F43276402E0236C01332364FA
:10BBA000012D09D00125FEF7CBFF284603B0F0BDDB
:10BBB000022DF0D10025F6E7211D08460191FEF780
:10BBC00017FF1048E26A0668019905FA02F3334349
:10BBD00003600D4B142000FB0230FEF7E6FEFFF77A
:10BBE0003DFB0A4BE26A1B68DB6A9A42DAD9084BD2
:10BBF0004FF080525A6040BFBFF34F8FBFF36F8F3B
:10BC0000D1E700BF605400201054002004540020ED
:10BC100000ED00E0F7B504460E46EFF31187402330
:10BC200083F31188022390F8442080F84430036C99
:10BC3000012A03F10103D5B203641DD1144B1B6823
:10BC4000F3B9011D08460191FEF7D2FE114AE36ADD
:10BC5000106801999D40054315600F4A142000FBB0
:10BC60000320FEF7A2FE0D4BE26A1B68DB6A9A42D4
:10BC700002D9012346B1336087F3118803B0F0BDC8
:10BC800000F118010648ECE7064A1360F4E700BF2C
:10BC90005854002060540020105400200454002008
:10BCA00098540020DC540020F8B50F4CFEF73EFFFE
:10BCB0002568ADB90D4F0E4E3846FEF768FE30468A
:10BCC000FEF765FE0B4B1F600B4B2A461021202010
:10BCD0001E60FFF7E9F8206010B10849FFF72AFA63
:10BCE000BDE8F840FEF72CBF14550020E8540020B2
:10BCF000FC540020E0540020E45400208025030080
:10BD0000914208B5416000610AD8D21A83699A420B
:10BD10000DD2084B011D1868FEF753FE002008BD28
:10BD20009A4201D2994202D2034B011DF3E701204E
:10BD3000F5E700BFE4540020E054002007B5FFF70A
:10BD4000B3FF084B186848B1074B019302230093D7
:10BD50000649074800235022FFF792FA03B05DF826
:10BD600004FB00BF14550020185500208525030052
:10BD700081BE02002DE9F041804628200F4616467C
:10BD80001D46FEF7DBFD044658B1FFF78DFF069B0D
:10BD9000C4F80080C4E9067625626362201DFEF7C0
:10BDA00001FE2046BDE8F0817FB50F4C05462068B6
:10BDB00016461A4680B10529CDE9001602950DDC1C
:10BDC000FFF752FE0023022808BF089A206818BF18
:10BDD0001A466946FFF780F804B070BD0023694633
:10BDE000FFF7FEF8F8E700BF145500202DE9FF47E4
:10BDF000DFF888800646FFF79BFBD8F800308342C7
:10BE0000054634D91B4F4FF000093B681A685AB9F0
:10BE1000194A116839601360012328463360C8F855
:10BE2000005004B0BDE8F087DB68DC68D3F800A000
:10BE3000211D08460391FEF7DBFD636A2046984703
:10BE4000E3690399012BE0D1A36953449A4505D2D4
:10BE5000386863602461FEF7B4FDD6E70023CDF8AF
:10BE60000090524619462046FFF79EFFCDE700237B
:10BE7000D3E700BFE0540020E45400201055002018
:10BE80002DE9F047594E88B04FF0000833681D681F
:10BE9000002D5BD0DB68D3F80090554FFFF740FBD7
:10BEA00004A8FFF7A3FF049C8246002C6AD1002D52
:10BEB0004ED0484552D3FFF7C7FB3368DB68DD68D7
:10BEC000281DFEF795FDEB69012B0ED1A9694B46A4
:10BED000524649442846FFF713FF30B100942346E9
:10BEE0004A4621462846FFF75FFF6B6A2846984777
:10BEF0003868002204A9FFF7A3F80028C6D0049BE5
:10BF00000698002B41DB069C6369002B44D103A8F3
:10BF1000FFF76CFF049B0246092BE9D801A151F8F9
:10BF200023F000BFA1BF0200A1BF0200A1BF020019
:10BF3000F1BE0200D3BF0200E3BF0200A1BF0200B6
:10BF4000A1BF0200F1BE0200D3BF0200A946A4E7D0
:10BF5000284B1B681C68B4FA84F4640938682246CC
:10BF6000A9EB0A01FFF7F4F8FFF76EFB0028BFD139
:10BF7000214B4FF080525A6040BFBFF34F8FBFF349
:10BF80006F8FB5E7FFF760FBB2E7059B079998470E
:10BF9000049B002BACDBB6E7201DFEF729FDB6E7BE
:10BFA000A169059B20461944FFF7AAFE00289FD0EF
:10BFB000636A20469847E369012B99D1A2690599E4
:10BFC000CDF8008000230A4420461946FFF7ECFE16
:10BFD0008EE70599A161034601442046FFF790FED4
:10BFE00086E72046FEF7D2FC82E700BFE05400203F
:10BFF00014550020E454002000ED00E013B5044681
:10C00000FEF794FD206A0190FEF79AFD019802B0B8
:10C0100010BD0000074B1B5C1F2B8ABF064A4FF068
:10C02000A04203F01F03D2F80405D840C04300F03B
:10C03000010070479125030000030050074B1B5C73
:10C040001F2B86BF064903F01F034FF0A0410122BA
:10C0500002FA03F3C1F80C35704700BF91250300C5
:10C0600000030050074B1B5C1F2B86BF064903F0E3
:10C070001F034FF0A041012202FA03F3C1F8083573
:10C08000704700BF912503000003005008B5002051
:10C09000FFF7E8FF0120FFF7E5FF0220FFF7E2FFCF
:10C0A000BDE808400320FFF7DDBF08B50020FFF71B
:10C0B000C5FF0120FFF7C2FF0220FFF7BFFFBDE869
:10C0C00008400320FFF7BABF0A4B185C1F288ABF3D
:10C0D000094B4FF0A04300F01F00D3F804250121C5
:10C0E000814021EA02000A40C3F80805C3F80C2584
:10C0F000704700BF91250300000300500B2809D0B2
:10C100000C2809D0182809D019280CBF03204FF09B
:10C11000FF307047002070470120704702207047B1
:10C12000014B185C704700BF8D250300C20710B596
:10C1300004460CD54FF0A0430322C3F83427C3F8BC
:10C140003827C3F83C27C3F84027FFF79FFFA30712
:10C150000AD54FF0A0430C22C3F82C27C3F8302790
:10C16000C3F86027C3F8642710BD42DF704743DF80
:10C170007047000038B5074C051E04F1080318BFCE
:10C180001C4623682BB11A6822605B6828469847D2
:10C19000F7E738BD2455002020B9054B01225A701D
:10C1A000FFF7E8BF012802D1014A9070F8E7704715
:10C1B0001C55002020B9034B01225A70FFF7DABF4B
:10C1C000704700BF1C55002038B50E4C2378B3B91A
:10C1D0000D486360A3602361E36000F04DFA0546FB
:10C1E00004F096FC08B900F053FA01232370074BC2
:10C1F000D3F800340BB10123A370284638BD852540
:10C20000F5E700BF1C55002099C102000000014065
:10C2100037B5184CA378054603F0FF029BB110B167
:10C2200043680120984700230DF107008DF807307F
:10C23000FDF7ACFDE3689DF807000133E360FDF70F
:10C24000C9FD03B030BD0DF107008DF80720FDF7E3
:10C250009DFD25B1226913463BB92A602561E3683B
:10C26000002BE7D100F02AFAE4E79D42F7D01B68E3
:10C27000F2E700BF1C55002037B50D4C00230DF12F
:10C2800007008DF80730FDF781FDE368013BE360AF
:10C29000E36833B9074BD3F8005415B900F01BFA23
:10C2A000A5709DF80700FDF795FD03B030BD00BFF8
:10C2B0001C55002000000140012813B50CD00328B4
:10C2C00020D038B9134B0122C3F88020BFF34F8F21
:10C2D000BFF36F8F02B010BD0F4C00230DF10700AC
:10C2E0008DF80730FDF752FD23780BB9FFF76CFF8F
:10C2F000E3689DF807000133E3600123A370FDF7B5
:10C3000069FDE7E700F0C4F902B0BDE81040FFF7AF
:10C31000B3BF00BF00E100E01C55002037B51B4C47
:10C320006378054603F0FF029BB110B1436800201B
:10C33000984700230DF107008DF80730FDF726FD23
:10C3400063689DF8070001336360FDF743FD03B0A8
:10C3500030BD0DF107008DF80720FDF717FD25B161
:10C36000A268134653B92A60A5606368002BE7D121
:10C3700004F0CEFB30B1FFF7F8FEE1E79D42F4D0C8
:10C380001B68EFE700F0B8F9DAE700BF1C550020A2
:10C3900073B50F4C00230DF107008DF80730FDF742
:10C3A000F5FC6368013B6360666836B904F0B0FB76
:10C3B000054640B1FFF7DBFE66709DF80700FDF70C
:10C3C00009FD02B070BD00F0A3F96570F5E700BF8C
:10C3D0001C55002036DF70474DDF70474EDF704739
:10C3E0004FDF704750DF704710B50446FFF7F6FF88
:10C3F00040B92046FFF7F0FF20B92046BDE81040C5
:10C40000FFF7EEBF10BD012810B5044602D100F0C1
:10C41000F1FB804700F0F4FB034668B10A2C07D01B
:10C420000B2C07D0092C07D10220BDE8104018477B
:10C430000020FAE70120F8E710BD0000012813B53D
:10C44000044603D003281CD002B010BD00230DF118
:10C4500007008DF80730FDF799FC00F0CBFB10B119
:10C460002046FFF7B7FF9DF80700FDF7B3FC00F08B
:10C47000C7FB0028E8D0012002B0BDE81040FFF75C
:10C48000B3BF0C4BC02283F8002301221A6000F0D6
:10C49000B1FB20B14FF080430422C3F8042300F025
:10C4A000AFFB0028D0D04FF080434FF46072C3F848
:10C4B0000423C9E700E100E038B50A4D2B780446B3
:10C4C00063B904F025FB58B90748002C18BF204673
:10C4D00000F09CFB08B901232B7038BD8520FCE7D8
:10C4E0000820FAE7305500209B25030013B50024EF
:10C4F0000DF107008DF80740FDF748FC04F008FB3C
:10C5000058B12046FFF770FF9DF80700FDF762FC69
:10C5100002B0BDE8104000F0ABBB00F0A2FBF3E7B7
:10C520001FB50190FFF7E2FF019800F08DFB04F0CA
:10C53000EFFA0446A0B10120FFF756FF044660B9A8
:10C5400003A8FFF74FFF044638B9039BDB0704D568
:10C5500000F056FB034620469847204604B010BD25
:10C5600000F078FBF9E700001FB503788DF8003084
:10C570004368019383688DF80830C368054A0393C4
:10C58000054B684653F8213052F82110984705B002
:10C590005DF804FB345500203C5500201FB503789E
:10C5A0008DF800304368019383688DF80830C368C4
:10C5B000054A0393054B684653F8213052F8211081
:10C5C000984705B05DF804FB345500203C55002029
:10C5D000F0B5194B90F800C0DFF86CE043F82C2060
:10C5E000164B16460A6943F82C204B7F0EF80C3088
:10C5F0000C4607460FCC89B06D460FC594E80F0076
:10C6000085E80F003B78CDF810C01EF803304BB121
:10C61000002E0B4A694608BF3246381D00F0E4FE82
:10C6200009B0F0BD002E074A694608BF324607F13F
:10C630000C0000F09DFCF3E73C5500203455002031
:10C6400069C502009DC502004455002010B503468F
:10C6500053E8000F00EA010243E8002494F0000FC1
:10C66000F6D110BD00F18040002382B00360036862
:10C670000193019B02B07047044A137923B9012149
:10C68000106011711846704785207047485500208A
:10C69000084B1A68D20704D4C02283F80023012271
:10C6A0001A604FF080420123C2F81835024A137015
:10C6B000704700BF00E100E05055002008B54FF47E
:10C6C0008270FFF7CFFF4FF080430222C3F80423AC
:10C6D00001229A6008BD4FF0804208B50223C2F8DB
:10C6E00008334FF48270FFF7BDFF0123D360D2F807
:10C6F0001834DB03FBD408BD08B54FF48070FFF796
:10C70000B1FF4FF080430122C3F804231A6008BD33
:10C710004FF08042012108B54FF48070C2F8081331
:10C72000FFF7A0FF5160D2F80C3403F00113B3F10E
:10C73000011FF8D008BD00004FF0804210B5D2F8BC
:10C74000003153B14FF48070FFF78CFF0123C2F822
:10C7500008330B4B00201B6898474FF08042D2F8FB
:10C76000043163B14FF48270FFF77CFF0223C2F8FB
:10C770000833034BBDE810401B680120184710BD6B
:10C780004855002000F1804000F5C040002382B0F1
:10C79000036003680193019B02B0704703681F2B7D
:10C7A00083BF03F01F03036001484FF0A0407047B0
:10C7B0000003005007B5019001A8FFF7EFFF019BB0
:10C7C00000EB8300D0F8003723F44033C0F8003783
:10C7D000D0F8003743EA0141C0F8001703B05DF814
:10C7E00004FB0000054B4FF0FF32072843F82020E0
:10C7F00084BFC01880F85220704700BF54550020F5
:10C8000038B51E4991F86430ABBB40F2FF30FF24CD
:10C810005A09012A0CBF02464FF0FF3203F01F05F0
:10C82000EA40D20748BFCA1803F1010348BF82F8A3
:10C8300030402A2BECD10024E0B20134FFF7D2FFC4
:10C840000C2CF9D10E4B0022C1F85E209A800D4BC2
:10C85000C02083F80603402018604FF4BE70FFF735
:10C8600091FF094B4FF00040C3F80403012381F806
:10C870006430104638BD0820FCE700BF5455002046
:10C88000B255002000E100E000600040034B93F847
:10C890006400003818BF0120704700BF54550020C5
:10C8A000F7B53D4F3B18044693F93030002B71DA51
:10C8B0008B78C3F34003002B0BBF082500250C2009
:10C8C0000820854202D1042003B0F0BD57F825604E
:10C8D000013647D138196EB247F8252080F830600C
:10C8E00013B97B1983F852408B785A071AD4D807AA
:10C8F0003AD501A80194FFF751FF019B00EB83009B
:10C90000D0F8003723F00203C0F800372348E208CC
:10C9100004F0070C012303FA0CF310F802C043EAF9
:10C920000C03835488780B7810F0020028D0AD00F7
:10C9300005F1804505F5C0452402D5F8102522F4FF
:10C940004F3222F44072C5F810251B04D5F810258B
:10C9500004F47C5403F440331C431443C5F81045DD
:10C960000020B1E70135ACE701A84A780194FFF750
:10C9700015FF019B03F5E073920040F82320C5E703
:10C98000083E47FA86F797F85A4044EA831387F837
:10C990005A3099E7082097E754550020B2550020F7
:10C9A00073B5244D2E18044696F93020072A1DDD54
:10C9B000083A45FA82F595F85A309B09032B10D1B5
:10C9C000019001A8FFF7EAFE019BD0F81015D940AD
:10C9D00001F001010231204602B0BDE87040FFF7CE
:10C9E000E9BE012B0CBF02210321F4E7D3B2072BD0
:10C9F0001DD8930003F1804303F5C043D3F810051D
:10CA000040F00100C3F8100502F1400040B2800080
:10CA100080B2FFF7B7FE51B196F9303055F82330A8
:10CA20002BB1012303FA02F2034BC3F8042302B033
:10CA300070BD00BF545500200060004007B5019054
:10CA400001A8FFF7ABFE019BD0F81005D84000F01D
:10CA5000010003B05DF804FB2DE9FF470024CDE998
:10CA60000244584D4FF48072012102F1804303F5D6
:10CA7000C04390B21B68012B06D1D5F804330B429A
:10CA800002D0FFF77FFE0C430432B2F5907F4FEAED
:10CA90004101EAD14B4BD3F87C31012B11D14FF43A
:10CAA000BE70FFF76FFE4FF0A04344F00044D3F890
:10CAB00020250292C3F82025D3F820280392C3F83A
:10CAC0002028E3B2D3B1404F00250126344210D0D4
:10CAD000AB0003F1804303F5C043D3F81005D3F84E
